:04000000FEEF7FF0A0
:101000000000000000DCCFD1350000000000C0155A
:101010003F02040301006042A20D70A5EC363BAA1A
:10102000B83F4F38763F3CAA38338CBEBF3500728C
:10103000313F1872313F4CBB31330EEADDB555B349
:101040008A38610B36BBABAA2A3E42F1533E553279
:101050006C3E05A38B3EABAAAA3EB76DDB3E9A99C8
:10106000193F6042A20DCAF249710000804B78001E
:1010700000000000803F0000C03F00AAB83FC62328
:10108000F6B80040763F000084C0B8F185C0B9F1E1
:1010900086C0BAF187C0BBF1B8C160F1B9C161F1D6
:1010A000BAC162F1BBC163F188C0B8F189C0B9F1BE
:1010B0008AC0BAF18BC0BBF1B8C184F1B9C185F166
:1010C000BAC186F1BBC187F1FF0E01016015A86F9F
:1010D000FF0E6115A96FFF0E6215AA6F7F0E6315D3
:1010E000AB6FFF0E8415986FFF0E8515996FFF0E7D
:1010F00086159A6F7F0E87159B6F985199119A11DB
:101100009B11D8A486EF08F088EF08F093EF08F061
:10111000000E0001846F000E856F800E866F3F0EFB
:10112000876F6BEF1DF0800E621909E13F0E6319A6
:1011300060116111D8A49FEF08F0A1EF08F0ACEFA7
:1011400008F0000E0001846F000E856F800E866F20
:101150003F0E876F6BEF1DF0ABBFBDEF08F0A8052A
:10116000000EA959800EAA597F0EAB59D8B0BBEF1B
:1011700008F0BDEF08F0CEEF08F09BBFCCEF08F011
:101180009805000E9959800E9A597F0E9B59D8A048
:10119000CCEF08F0CEEF08F0EAEF08F084C01AF0C8
:1011A00085C01BF086C01CF087C01DF088C01EF0F3
:1011B00089C01FF08AC020F08BC021F0CCEC1FF05A
:1011C0001AC084F01BC085F01CC086F01DC087F0DB
:1011D0006BEF1DF0000E506F000E516F000E526F3E
:1011E000000E536F63BFF9EF08F0F7EF08F0C5EF9B
:1011F00009F09BBF05EF09F0800E9A5D4B0E9B59DD
:10120000D8A005EF09F007EF09F011EF09F0020E81
:10121000506F000E516F000E526F000E536FC5EFEE
:1012200009F09BBF1DEF09F0800E9A5D3F0E9B59A0
:10123000D8A01DEF09F01FEF09F0C5EF09F0170E58
:1012400000018C6F98C18DF099C18EF09AC18FF01A
:101250009BC190F08C672FEF09F037EF09F09035C4
:1012600090338F338E338D338C2F2AEF09F0810E1C
:1012700000018D250101A06FFF0E00018E210101EB
:10128000A16FFF0E00018F210101A26FFF0E00016F
:1012900090210101A36FA051170800018C6F98C124
:1012A0008DF099C18EF09AC18FF09BC190F08C6740
:1012B0005CEF09F064EF09F0903590338F338E3393
:1012C0008D338C2F57EF09F08DC0ACF18EC0ADF18E
:1012D0008FC0AEF190C0AFF10101A051170800011D
:1012E0008C6FACC18DF0ADC18EF0AEC18FF0AFC1CF
:1012F00090F08C2B81EF09F0D8908D378E378F3797
:1013000090378C2F7CEF09F00101985100018D1965
:1013100013E10101995100018E190EE101019A5169
:1013200000018F1909E101019B5100019019D8A416
:101330009CEF09F09EEF09F0C5EF09F0010E0101E5
:10134000AC1500018C6F000E0101AD1500018D6F11
:10135000000E0101AE1500018E6F000E0101AF15E8
:1013600000018F6F8C5102080101506F000E0001C7
:101370008D550101516F000E00018E550101526F14
:10138000000E00018F550101536F800E01019A1963
:1013900009E17F0E9B1998119911D8A4D2EF09F099
:1013A000D4EF09F040EF0AF0800EAA1909E13F0ED0
:1013B000AB19A811A911D8A4E0EF09F0E2EF09F0E8
:1013C000EDEF09F0000E0001846F000E856F800EB6
:1013D000866F3F0E876F6BEF1DF0ABBFFCEF09F020
:1013E000A805000EA959800EAA593F0EAB59D8A0E6
:1013F000FCEF09F0FEEF09F01AEF0AF087BF05EFE6
:101400000AF003EF0AF010EF0AF0000E0001846FFB
:10141000000E856F000E866F000E876F6BEF1DF05C
:1014200088C084F089C085F08AC086F08BC087F0C0
:101430006BEF1DF087BF21EF0AF01FEF0AF035EFC9
:101440000AF088C001F089C002F08AC003F08BC0A6
:1014500004F068EC30F001C084F002C085F003C0F5
:1014600086F004C087F06BEF1DF0000E0001846F62
:10147000000E856F000E866F000E876F6BEF1DF0FC
:10148000800E9A1909E13F0E9B1998119911D8A461
:101490004CEF0AF04EEF0AF07BEF0AF087BF55EFF2
:1014A0000AF053EF0AF071EF0AF0000E016E000E21
:1014B000026E800E036E3F0E046E84C005F085C080
:1014C00006F086C007F087C008F053EC24F001C096
:1014D00084F002C085F003C086F004C087F06BEF93
:1014E0001DF084C084F085C085F086C086F087C07A
:1014F00087F06BEF1DF0400E87198411851186115E
:10150000D8A485EF0AF087EF0AF0A3EF0AF084C0B1
:101510002AF085C02BF086C02CF087C02DF084C047
:101520002EF085C02FF086C030F087C031F02CEC53
:1015300022F02AC084F02BC085F02CC086F02DC08C
:1015400087F06BEF1DF03F0E87198411851186110E
:10155000D8A4ADEF0AF0AFEF0AF0CAEF0AF063BF0C
:10156000B4EF0AF0B6EF0AF0CAEF0AF084C057F001
:1015700085C058F086C059F087C05AF06CEC1DF059
:1015800057C084F058C085F059C086F05AC087F023
:101590006BEF1DF084C001F085C002F086C003F03F
:1015A00087C004F084EC30F001C070F102C071F12A
:1015B00003C072F104C073F1800E0101AA190BE19E
:1015C0007F0EAB19A811A911D8B4E9EF0AF0EBEF1F
:1015D0000AF004EF0BF0A851A911AA11AB11D8B46D
:1015E000F4EF0AF0F6EF0AF004EF0BF0800EAA1900
:1015F00009E13F0EAB19A811A911D8A402EF0BF015
:1016000004EF0BF0D3EF0BF070C1B4F171C1B5F181
:1016100072C1B6F173C1B7F187BF13EF0BF011EFD1
:101620000BF02DEF0BF0000E016E000E026E800E1F
:10163000036E3F0E046EB4C105F0B5C106F0B6C12D
:1016400007F0B7C108F053EC24F001C0B4F102C0B8
:10165000B5F103C0B6F104C0B7F1010163BF35EFC6
:101660000BF033EF0BF0C9EF0BF0000EA8250001D3
:101670008C6F000E0101A92100018D6F800E010108
:10168000AA2100018E6FC00E0101AB2100018F6FF6
:101690000101505100018C11906F01015151000165
:1016A0008D11916F0101525100018E11926F010154
:1016B000535100018F11936F905191119211931119
:1016C000D8A465EF0BF067EF0BF0ABEF0BF0000E5B
:1016D000C96F210EC86FB4C147F0B5C148F0B6C19B
:1016E00049F0B7C14AF0B4C143F0B5C144F0B6C146
:1016F00045F0B7C146F045EC30F043C001F044C0BE
:1017000002F045C003F046C004F0B4C147F0B5C1D3
:1017100048F0B6C149F0B7C14AF0B4C143F0B5C111
:1017200044F0B6C145F0B7C146F045EC30F043C0D7
:1017300005F044C006F045C007F046C008F053EC81
:1017400024F001C0B4F102C0B5F103C0B6F104C089
:10175000B7F1C9EF0BF001015005511152115311AE
:10176000D8A4B5EF0BF0B7EF0BF0C9EF0BF0B4C195
:1017700001F0B5C102F0B6C103F0B7C104F068ECE6
:1017800030F001C0B4F102C0B5F103C0B6F104C03D
:10179000B7F1B4C184F0B5C185F0B6C186F0B7C168
:1017A00087F06BEF1DF0000E886F000E896F800EC2
:1017B0008A6F3F0E8B6F63BFE2EF0BF0E0EF0BF031
:1017C00045EF0CF05051511152115311D8A4EBEFC9
:1017D0000BF0EDEF0BF032EF0CF0000E0001C96FD3
:1017E000210EC86F84C047F085C048F086C049F01C
:1017F00087C04AF084C043F085C044F086C045F0FD
:1018000087C046F045EC30F043C001F044C002F020
:1018100045C003F046C004F084C047F085C048F0DE
:1018200086C049F087C04AF084C043F085C044F0C8
:1018300086C045F087C046F045EC30F043C005F067
:1018400044C006F045C007F046C008F053EC24F051
:1018500001C084F002C085F003C086F004C087F0A8
:101860006BEF1DF05005511152115311D8A43BEFED
:101870000CF03DEF0CF045EF0CF0000E886F000E01
:10188000896F800E8A6FBF0E8B6F9BBF54EF0CF079
:101890009805000E9959000E9A594D0E9B59D8A0E3
:1018A00054EF0CF056EF0CF0DBEF0EF0ABBF68EF2F
:1018B0000CF0F80EA85DFF0EA9597F0EAA593F0E35
:1018C000AB59D8B066EF0CF068EF0CF0DBEF0CF022
:1018D00087BF6DEF0CF06FEF0CF0A5EF0CF0600E12
:1018E0002E6E420E2F6EA20E306E0D0E316E88C11E
:1018F0002AF089C12BF08AC12CF08BC12DF02CEC81
:1019000022F02AC0A4F12BC0A5F12CC0A6F12DC055
:10191000A7F1A4C12AF0A5C12BF0A6C12CF0A7C144
:101920002DF0600E2E6E420E2F6EA20E306E0D0E3A
:10193000316E2CEC22F02AC084F02BC085F02CC034
:1019400086F02DC087F06BEF1DF0CA0E2E6EF20EE2
:101950002F6E490E306E710E316E88C12AF089C12A
:101960002BF08AC12CF08BC12DF02CEC22F02AC078
:10197000A4F12BC0A5F12CC0A6F12DC0A7F1A4C1E4
:101980002AF0A5C12BF0A6C12CF0A7C12DF0CA0EDC
:101990002E6EF20E2F6E490E306E710E316E2CECE3
:1019A00022F02AC084F02BC085F02CC086F02DC018
:1019B00087F06BEF1DF0ABBFEBEF0CF0080EA85DEE
:1019C000000EA959800EAA593F0EAB59D8A0EBEFD3
:1019D0000CF0EDEF0CF068EF0DF087BFFCEF0CF0B2
:1019E00087518611851106E18405D8B0FAEF0CF015
:1019F000FCEF0CF032EF0DF0600E2E6E420E2F6EEB
:101A0000A20E306E0D0E316E88C12AF089C12BF006
:101A10008AC12CF08BC12DF02CEC22F02AC0A4F14D
:101A20002BC0A5F12CC0A6F12DC0A7F1A4C12AF0AE
:101A3000A5C12BF0A6C12CF0A7C12DF0600E2E6E13
:101A4000420E2F6EA20E306E0D0E316E2CEC22F077
:101A50002AC084F02BC085F02CC086F02DC087F002
:101A60006BEF1DF0CA0E2E6EF20E2F6E490E306E09
:101A7000710E316E88C12AF089C12BF08AC12CF019
:101A80008BC12DF02CEC22F02AC0A4F12BC0A5F1C3
:101A90002CC0A6F12DC0A7F1A4C12AF0A5C12BF03E
:101AA000A6C12CF0A7C12DF0CA0E2E6EF20E2F6E1D
:101AB000490E306E710E316E2CEC22F02AC084F08B
:101AC0002BC085F02CC086F02DC087F06BEF1DF089
:101AD00070C11AF071C11BF072C11CF073C11DF00E
:101AE000000E1E6E000E1F6E800E206EBF0E216E49
:101AF000CCEC1FF01AC0B0F11BC0B1F11CC0B2F1A8
:101B00001DC0B3F1000E2E6E000E2F6E800E306ED3
:101B10003E0E316EB0C12AF0B1C12BF0B2C12CF033
:101B2000B3C12DF02CEC22F02AC047F02BC048F0B6
:101B30002CC049F02DC04AF0AB0E436EAA0E446E85
:101B4000AA0E456E3E0E466E45EC30F043C0A4F141
:101B500044C0A5F145C0A6F146C0A7F1B0C12EF022
:101B6000B1C12FF0B2C130F0B3C131F0B0C12AF031
:101B7000B1C12BF0B2C12CF0B3C12DF02CEC22F08E
:101B80002AC054F12BC055F12CC056F12DC057F18D
:101B9000B0C12EF0B1C12FF0B2C130F0B3C131F0FD
:101BA000A4C12AF0A5C12BF0A6C12CF0A7C12DF02D
:101BB0002CEC22F02AC047F02BC048F02CC049F092
:101BC0002DC04AF0000E436E000E446E000E456EAE
:101BD0003F0E466E45EC30F043C048F144C049F139
:101BE00045C04AF146C04BF154C12AF055C12BF013
:101BF00056C12CF057C12DF048C12EF049C12FF02D
:101C00004AC130F04BC131F02CEC22F02AC044F133
:101C10002BC045F12CC046F12DC047F1B0C12AF0D0
:101C2000B1C12BF0B2C12CF0B3C12DF0000E2E6E5D
:101C3000AA0E2F6EB80E306E3F0E316E2CEC22F0D5
:101C40002AC074F12BC075F12CC076F12DC077F14C
:101C5000700E2E6EA50E2F6EEC0E306E360E316E9F
:101C6000B0C12AF0B1C12BF0B2C12CF0B3C12DF03C
:101C70002CEC22F02AC043F02BC044F02CC045F0DD
:101C80002DC046F03B0E2E6EAA0E2F6EB80E306E93
:101C90003F0E316E44C12AF045C12BF046C12CF0F5
:101CA00047C12DF02CEC22F02AC047F02BC048F0A1
:101CB0002CC049F02DC04AF045EC30F043C078F11B
:101CC00044C079F145C07AF146C07BF174C11AF085
:101CD00075C11BF076C11CF077C11DF078C11EF0F4
:101CE00079C11FF07AC120F07BC121F0CCEC1FF04C
:101CF0001AC080F11BC081F11CC082F11DC083F1AC
:101D000080C1B8F181C1B9F182C1BAF183C1BBF11F
:101D1000B8C190F1B9C191F1BAC192F1BBC193F1CF
:101D2000000E01019015B86FF00E9115B96FFF0EFE
:101D30009215BA6FFF0E9315BB6FB8C180F1B9C190
:101D400081F1BAC182F1BBC183F174C147F075C1A1
:101D500048F076C149F077C14AF080C143F081C1B3
:101D600044F082C145F083C146F045EC30F043C0F9
:101D700094F144C095F145C096F146C097F178C101
:101D800043F079C144F07AC145F07BC146F094C17B
:101D900047F095C148F096C149F097C14AF045EC2B
:101DA00030F043C01CF144C01DF145C01EF146C0D7
:101DB0001FF161EF16F0000E7C6F000E7D6F000EBC
:101DC0007E6F000E7F6FABBFF1EF0EF0AB5107E1FE
:101DD000800EAA5DD8B0EFEF0EF0F1EF0EF024EF19
:101DE0000FF070C12AF071C12BF072C12CF073C1D9
:101DF0002DF0000E2E6E000E2F6E800E306E4B0EEC
:101E0000316E2CEC22F02AC070F12BC071F12CC085
:101E100072F12DC073F1E80E01017C27FF0E7D23C6
:101E2000FF0E7E23FF0E7F2370C1B8F171C1B9F19F
:101E300072C1BAF173C1BBF1B8C1A8F1B9C1A9F1BE
:101E4000BAC1AAF1BBC1ABF1170E00018C6FA8C1DA
:101E50008DF0A9C18EF0AAC18FF0ABC190F08C6754
:101E600034EF0FF03CEF0FF0903590338F338E331B
:101E70008D338C2F2FEF0FF0810E00018D25916F88
:101E8000FF0E8E21926FFF0E8F21936FFF0E902118
:101E9000946F915101017C270001925101017D2332
:101EA0000001935101017E230001945101017F2320
:101EB000FF0EA815AC6FFF0EA915AD6F7F0EAA150A
:101EC000AE6F000EAB15AF6F000EAC11A86F000E19
:101ED000AD11A96F800EAE11AA6F3F0EAF11AB6F9F
:101EE000AFBF82EF0FF0AF510BE1720EAC5DC40ECD
:101EF000AD591C0EAE59D8B080EF0FF082EF0FF045
:101F00008CEF0FF0000EA06F000EA16F000EA26FFD
:101F1000000EA36FBEEF0FF0AFBF9EEF0FF0AF51FB
:101F20000BE1D70EAC5DB30EAD595D0EAE59D8B016
:101F30009CEF0FF09EEF0FF0A8EF0FF0010EA06FD7
:101F4000000EA16F000EA26F000EA36FBEEF0FF088
:101F5000000EA06F000EA16F000EA26F000EA36F07
:101F6000010E7C27000E7D237E237F23000EA827F1
:101F7000000EA923800EAA23FF0EAB23A8C1B8F13F
:101F8000A9C1B9F1AAC1BAF1ABC1BBF1B8C170F135
:101F9000B9C171F1BAC172F1BBC173F170C143F043
:101FA00071C144F072C145F073C146F0A0C18CF01C
:101FB000A1C18DF00001D8908C378D37D8908C3727
:101FC0008D37720E8C25F66E100E8D21F76E09007E
:101FD0006F00D4FF47F009006F00D4FF48F00900FC
:101FE0006F00D4FF49F00A006F00D4FF4AF045ECBF
:101FF00030F043C074F144C075F145C076F146C07D
:1020000077F1000E016E000E026E800E036E3F0E21
:10201000046E70C11EF071C11FF072C120F073C157
:1020200021F0A0C18CF0A1C18DF00001D8908C37B7
:102030008D37D8908C378D37720E8C25F66E100E3A
:102040008D21F76E09006F00D4FF1AF009006F00B0
:10205000D4FF1BF009006F00D4FF1CF00A006F00D2
:10206000D4FF1DF0CCEC1FF01AC005F01BC006F029
:102070001CC007F01DC008F053EC24F001C078F13B
:1020800002C079F103C07AF104C07BF174C12AF077
:1020900075C12BF076C12CF077C12DF078C12EF0F0
:1020A00079C12FF07AC130F07BC131F02CEC22F0F5
:1020B0002AC05CF12BC05DF12CC05EF12DC05FF138
:1020C0005CC16CF15DC16DF15EC16EF15FC16FF11C
:1020D0006CC1B8F16DC1B9F16EC1BAF16FC1BBF19C
:1020E000B8C190F1B9C191F1BAC192F1BBC193F1FC
:1020F000000E01019015B86FF00E9115B96FFF0E2B
:102100009215BA6FFF0E9315BB6FB8C16CF1B9C1D0
:102110006DF1BAC16EF1BBC16FF1A8C18CF0A9C15C
:102120008DF0AAC18EF0ABC18FF000018F358F33D7
:102130008E338D338C33000E8C15906FF00E8D1511
:10214000916FFF0E8E15926FFF0E8F15936F000E1D
:1021500090110101906F000E000191110101916F2A
:10216000000E000192110101926F200E00019311E7
:102170000101936FA0C18CF0A1C18DF0A2C18EF0BE
:10218000A3C18FF0150ED89000018C378D378E3794
:102190008F37E82EC3EF10F00101905100018C251C
:1021A000906F0101915100018D21916F01019251B8
:1021B00000018E21926F0101935100018F21936FD5
:1021C000000E90250101B86F000E00019121010160
:1021D000B96F400E000192210101BA6F000E00019B
:1021E00093210101BB6FB8C168F1B9C169F1BAC1EE
:1021F0006AF1BBC16BF1A0C18CF0A1C18DF00001EF
:10220000D8908C378D37D8908C378D37720E8C25BF
:10221000F66E100E8D21F76E09006F00D4FF47F0A7
:1022200009006F00D4FF48F009006F00D4FF49F0A7
:102230000A006F00D4FF4AF068C143F069C144F05E
:102240006AC145F06BC146F045EC30F043C094F1F3
:1022500044C095F145C096F146C097F170C143F076
:1022600071C144F072C145F073C146F094C147F0AA
:1022700095C148F096C149F097C14AF045EC30F05D
:1022800043C034F144C035F145C036F146C037F1A2
:1022900068C12EF069C12FF06AC130F06BC131F016
:1022A0006CC12AF06DC12BF06EC12CF06FC12DF006
:1022B0002CEC22F02AC047F02BC048F02CC049F08B
:1022C0002DC04AF074C143F075C144F076C145F0A9
:1022D00077C146F045EC30F043C094F144C095F12D
:1022E00045C096F146C097F134C12EF035C12FF0AC
:1022F00036C130F037C131F06CC12AF06DC12BF01E
:102300006EC12CF06FC12DF02CEC22F02AC047F0EA
:102310002BC048F02CC049F02DC04AF094C143F0C6
:1023200095C144F096C145F097C146F045EC30F0B8
:1023300043C054F144C055F145C056F146C057F171
:1023400054C12AF055C12BF056C12CF057C12DF0C5
:1023500078C12EF079C12FF07AC130F07BC131F015
:102360002CEC22F02AC030F12BC031F12CC032F11C
:102370002DC033F15CC12AF05DC12BF05EC12CF0A1
:102380005FC12DF05CC12EF05DC12FF05EC130F059
:102390005FC131F02CEC22F02AC08CF12BC08DF102
:1023A0002CC08EF12DC08FF1550E1E6E320E1F6E99
:1023B0006C0E206E3E0E216E420E2E6EF10E2F6EB2
:1023C000530E306E3E0E316E8CC12AF08DC12BF053
:1023D0008EC12CF08FC12DF02CEC22F02AC01AF007
:1023E0002BC01BF02CC01CF02DC01DF0CCEC1FF03E
:1023F0001AC0A4F11BC0A5F11CC0A6F11DC0A7F115
:10240000050E1E6EA30E1F6E8B0E206E3E0E216EED
:102410008CC12EF08DC12FF08EC130F08FC131F004
:10242000A4C12AF0A5C12BF0A6C12CF0A7C12DF0A4
:102430002CEC22F02AC01AF02BC01BF02CC01CF090
:102440002DC01DF0CCEC1FF01AC054F11BC055F18B
:102450001CC056F11DC057F1AB0E1E6EAA0E1F6EAA
:10246000AA0E206E3E0E216E8CC12EF08DC12FF073
:102470008EC130F08FC131F054C12AF055C12BF01C
:1024800056C12CF057C12DF02CEC22F02AC01AF0C6
:102490002BC01BF02CC01CF02DC01DF0CCEC1FF08D
:1024A0001AC048F11BC049F11CC04AF11DC04BF1D4
:1024B000B70E1E6E6D0E1F6EDB0E206E3E0E216E71
:1024C0008CC12EF08DC12FF08EC130F08FC131F054
:1024D00048C12AF049C12BF04AC12CF04BC12DF064
:1024E0002CEC22F02AC01AF02BC01BF02CC01CF0E0
:1024F0002DC01DF0CCEC1FF01AC038F11BC039F113
:102500001CC03AF11DC03BF19A0E1E6E990E1F6E53
:10251000190E206E3F0E216E8CC12EF08DC12FF052
:102520008EC130F08FC131F038C12AF039C12BF0A3
:102530003AC12CF03BC12DF02CEC22F02AC01AF04D
:102540002BC01BF02CC01CF02DC01DF0CCEC1FF0DC
:102550001AC000F11BC001F11CC002F11DC003F143
:102560008CC12EF08DC12FF08EC130F08FC131F0B3
:102570008CC12AF08DC12BF08EC12CF08FC12DF0B3
:102580002CEC22F02AC004F12BC005F12CC006F17E
:102590002DC007F100C12AF001C12BF002C12CF0BF
:1025A00003C12DF004C12EF005C12FF006C130F09B
:1025B00007C131F02CEC22F02AC04CF12BC04DF1B8
:1025C0002CC04EF12DC04FF130C12EF031C12FF093
:1025D00032C130F033C131F05CC11EF05DC11FF07B
:1025E0005EC120F05FC121F06CC11AF06DC11BF01B
:1025F0006EC11CF06FC11DF0CCEC1FF01AC02AF0A8
:102600001BC02BF01CC02CF01DC02DF02CEC22F0B8
:102610002AC058F12BC059F12CC05AF12DC05BF1E2
:102620004CC11AF04DC11BF04EC11CF04FC11DF042
:1026300058C11EF059C11FF05AC120F05BC121F0F2
:10264000CCEC1FF01AC04CF11BC04DF11CC04EF178
:102650001DC04FF16CC12AF06DC12BF06EC12CF082
:102660006FC12DF06CC12EF06DC12FF06EC130F036
:102670006FC131F02CEC22F02AC08CF12BC08DF10F
:102680002CC08EF12DC08FF1000E1E6E000E1F6E3D
:10269000400E206E400E216E8CC11AF08DC11BF0D1
:1026A0008EC11CF08FC11DF0CCEC1FF01AC058F188
:1026B0001BC059F11CC05AF11DC05BF158C11AF082
:1026C00059C11BF05AC11CF05BC11DF04CC11EF07A
:1026D0004DC11FF04EC120F04FC121F0CCEC1FF0D6
:1026E0001AC068F11BC069F11CC06AF11DC06BF112
:1026F00068C1B8F169C1B9F16AC1BAF16BC1BBF186
:10270000B8C190F1B9C191F1BAC192F1BBC193F1D5
:10271000000E01019015B86FF00E9115B96FFF0E04
:102720009215BA6FFF0E9315BB6FB8C168F1B9C1AE
:1027300069F1BAC16AF1BBC16BF1000E1E6E000EE9
:102740001F6E400E206EC00E216E68C11AF069C166
:102750001BF06AC11CF06BC11DF0CCEC1FF01AC05D
:102760003CF11BC03DF11CC03EF11DC03FF18CC1CE
:1027700047F08DC148F08EC149F08FC14AF03CC18D
:1027800043F03DC144F03EC145F03FC146F045EC49
:1027900030F043C040F144C041F145C042F146C071
:1027A00043F14CC143F04DC144F04EC145F04FC11F
:1027B00046F040C147F041C148F042C149F043C131
:1027C0004AF045EC30F043C034F144C035F145C027
:1027D00036F146C037F16CC12AF06DC12BF06EC1E5
:1027E0002CF06FC12DF068C12EF069C12FF06AC1C5
:1027F00030F06BC131F02CEC22F02AC074F12BC008
:1028000075F12CC076F12DC077F168C12EF069C149
:102810002FF06AC130F06BC131F030C12AF031C104
:102820002BF032C12CF033C12DF02CEC22F02AC059
:102830001AF02BC01BF02CC01CF02DC01DF05CC189
:102840002EF05DC12FF05EC130F05FC131F034C1B8
:102850002AF035C12BF036C12CF037C12DF02CEC0D
:1028600022F02AC01EF02BC01FF02CC020F02DC07B
:1028700021F0CCEC1FF01AC078F11BC079F11CC01C
:102880007AF11DC07BF174C11AF075C11BF076C1DD
:102890001CF077C11DF078C11EF079C11FF07AC11C
:1028A00020F07BC121F0CCEC1FF01AC09CF11BC0C2
:1028B0009DF11CC09EF11DC09FF19CC1B8F19DC14E
:1028C000B9F19EC1BAF19FC1BBF1B8C190F1B9C1D4
:1028D00091F1BAC192F1BBC193F1000E01019015C3
:1028E000B86FF00E9115B96FFF0E9215BA6FFF0E0B
:1028F0009315BB6FB8C19CF1B9C19DF1BAC19EF1EE
:10290000BBC19FF174C147F075C148F076C149F071
:1029100077C14AF09CC143F09DC144F09EC145F08F
:102920009FC146F045EC30F043C094F144C095F1AE
:1029300045C096F146C097F178C143F079C144F0A3
:102940007AC145F07BC146F094C147F095C148F08B
:1029500096C149F097C14AF045EC30F043C064F1AC
:1029600044C065F145C066F146C067F19CC12AF0DC
:102970009DC12BF09EC12CF09FC12DF0000E2E6E3C
:10298000400E2F6E760E306E3F0E316E2CEC22F024
:102990002AC020F12BC021F12CC022F12DC023F13F
:1029A0004F0E2E6E380E2F6E760E306E3F0E316E3D
:1029B00064C12AF065C12BF066C12CF067C12DF00F
:1029C0002CEC22F02AC01EF02BC01FF02CC020F0EF
:1029D0002DC021F0C60E2E6E230E2F6EF60E306E19
:1029E000B80E316E9CC12AF09DC12BF09EC12CF017
:1029F0009FC12DF02CEC22F02AC01AF02BC01BF046
:102A00002CC01CF02DC01DF0CCEC1FF01AC058F1EA
:102A10001BC059F11CC05AF11DC05BF158C11AF01E
:102A200059C11BF05AC11CF05BC11DF0A0C18CF054
:102A3000A1C18DF00001D8908C378D37D8908C379C
:102A40008D37010E8C25F66E100E8D21F76E090064
:102A50006F00D4FF1EF009006F00D4FF1FF00900C3
:102A60006F00D4FF20F00A006F00D4FF21F0CCECFF
:102A70001FF01AC024F11BC025F11CC026F11DC097
:102A800027F17CC101F07DC102F07EC103F07FC15E
:102A900004F0010E55EC2BF001C0B0F102C0B1F111
:102AA00003C0B2F104C0B3F124C11EF025C11FF070
:102AB00026C120F027C121F020C11AF021C11BF04E
:102AC00022C11CF023C11DF0CCEC1FF01AC058F13C
:102AD0001BC059F11CC05AF11DC05BF1A0C18CF0A4
:102AE000A1C18DF00001D8908C378D37D8908C37EC
:102AF0008D37090E8C25F66E100E8D21F76E0900AC
:102B00006F00D4FF1EF009006F00D4FF1FF0090012
:102B10006F00D4FF20F00A006F00D4FF21F058C1ED
:102B20001AF059C11BF05AC11CF05BC11DF0CCEC6E
:102B30001FF01AC008F11BC009F11CC00AF11DC02A
:102B40000BF108C11AF009C11BF00AC11CF00BC13E
:102B50001DF0B0C11EF0B1C11FF0B2C120F0B3C171
:102B600021F0CCEC1FF01AC080F11BC081F11CC019
:102B700082F11DC083F180C1B8F181C1B9F182C178
:102B8000BAF183C1BBF1B8C190F1B9C191F1BAC139
:102B900092F1BBC193F1000E01019015B86FF00ED8
:102BA0009115B96FFF0E9215BA6FFF0E9315BB6F9B
:102BB000B8C180F1B9C181F1BAC182F1BBC183F161
:102BC000B0C147F0B1C148F0B2C149F0B3C14AF059
:102BD00080C143F081C144F082C145F083C146F019
:102BE00045EC30F043C094F144C095F145C096F1F6
:102BF00046C097F1A0C18CF0A1C18DF00001D89022
:102C00008C378D37D8908C378D37090E8C25F66E22
:102C1000100E8D21F76E09006F00D4FF47F00900F8
:102C20006F00D4FF48F009006F00D4FF49F00A009C
:102C30006F00D4FF4AF094C143F095C144F096C1AF
:102C400045F097C146F045EC30F043C040F144C038
:102C500041F145C042F146C043F120C147F021C1D6
:102C600048F022C149F023C14AF040C143F041C1BC
:102C700044F042C145F043C146F045EC30F043C05A
:102C80000CF144C00DF145C00EF146C00FF124C156
:102C900043F025C144F026C145F027C146F00CC1E0
:102CA00047F00DC148F00EC149F00FC14AF045ECA4
:102CB00030F043C01CF144C01DF145C01EF146C0B8
:102CC0001FF188C0B8F189C0B9F18AC0BAF18BC0D0
:102CD000BBF1B8C190F1B9C191F1BAC192F1BBC1D8
:102CE00093F1000E01019015B86FF00E9115B96FB8
:102CF000FF0E9215BA6FFF0E9315BB6FB8C128F186
:102D0000B9C129F1BAC12AF1BBC12BF180C12EF0A2
:102D100081C12FF082C130F083C131F028C147F06A
:102D200029C148F02AC149F02BC14AF088C043F0BC
:102D300089C044F08AC045F08BC046F045EC30F0C5
:102D400043C02AF044C02BF045C02CF046C02DF003
:102D50002CEC22F02AC010F12BC011F12CC012F182
:102D60002DC013F110C11AF011C11BF012C11CF0DB
:102D700013C11DF01CC12EF01DC12FF01EC130F07B
:102D80001FC131F088C02AF089C02BF08AC02CF016
:102D90008BC02DF02CEC22F02AC01EF02BC01FF0AF
:102DA0002CC020F02DC021F0CCEC1FF01AC064F133
:102DB0001BC065F11CC066F11DC067F128C12AF077
:102DC00029C12BF02AC12CF02BC12DF080C12EF08F
:102DD00081C12FF082C130F083C131F02CEC22F0A0
:102DE0002AC09CF12BC09DF12CC09EF12DC09FF1FB
:102DF00064C11AF065C11BF066C11CF067C11DF00B
:102E00009CC11EF09DC11FF09EC120F09FC121F00A
:102E1000CCEC1FF01AC0B4F11BC0B5F11CC0B6F168
:102E20001DC0B7F1B4C1B8F1B5C1B9F1B6C1BAF1BD
:102E3000B7C1BBF1B8C1ACF1B9C1ADF1BAC1AEF126
:102E4000BBC1AFF10101AFBF32EF17F0AC05000E0F
:102E5000AD59000EAE59430EAF59D8A032EF17F05E
:102E600034EF17F06AEF17F0CA0E2E6EF20E2F6EC7
:102E7000490E306E710E316E88C12AF089C12BF077
:102E80008AC12CF08BC12DF02CEC22F02AC0A4F1C9
:102E90002BC0A5F12CC0A6F12DC0A7F1A4C12AF02A
:102EA000A5C12BF0A6C12CF0A7C12DF0CA0E2E6E25
:102EB000F20E2F6E490E306E710E316E2CEC22F038
:102EC0002AC084F02BC085F02CC086F02DC087F07E
:102ED0006BEF1DF0430EAF19AC11AD11AE11D8A4BC
:102EE00074EF17F076EF17F0E9EF17F09CC147F099
:102EF0009DC148F09EC149F09FC14AF0B4C143F062
:102F0000B5C144F0B6C145F0B7C146F045EC30F06C
:102F100043C04BF044C04CF045C04DF046C04EF0AD
:102F20003C0E1E6EAA0E1F6E380E206E330E216EE2
:102F300064C11AF065C11BF066C11CF067C11DF0C9
:102F4000CCEC1FF01AC04FF01BC050F01CC051F069
:102F50001DC052F022EC2EF0D8B0B1EF17F0B3EF55
:102F600017F0B3EF18F0CA0E2E6EF20E2F6E490E48
:102F7000306E710E316E88C12AF089C12BF08AC182
:102F80002CF08BC12DF02CEC22F02AC0A4F12BC028
:102F9000A5F12CC0A6F12DC0A7F1A4C12AF0A5C1AE
:102FA0002BF0A6C12CF0A7C12DF0CA0E2E6EF20E8A
:102FB0002F6E490E306E710E316E2CEC22F02AC04D
:102FC00084F02BC085F02CC086F02DC087F06BEF0D
:102FD0001DF0FF0EAC1500018C6FFF0E0101AD1549
:102FE00000018D6FFF0E0101AE1500018E6F7F0E87
:102FF0000101AF1500018F6F8FBF0BEF18F08C052B
:10300000000E8D59160E8E59430E8F59D8A00BEF16
:1030100018F00DEF18F043EF18F0600E2E6E420E10
:103020002F6EA20E306E0D0E316E88C12AF089C14E
:103030002BF08AC12CF08BC12DF02CEC22F02AC091
:10304000A4F12BC0A5F12CC0A6F12DC0A7F1A4C1FD
:103050002AF0A5C12BF0A6C12CF0A7C12DF0600E5F
:103060002E6E420E2F6EA20E306E0D0E316E2CECB7
:1030700022F02AC084F02BC085F02CC086F02DC031
:1030800087F06BEF1DF0160E0101AE1909E1C30EBA
:10309000AF19AC11AD11D8A450EF18F052EF18F0E1
:1030A000B3EF18F09CC147F09DC148F09EC149F0B4
:1030B0009FC14AF0B4C143F0B5C144F0B6C145F078
:1030C000B7C146F045EC30F043C04BF044C04CF083
:1030D00045C04DF046C04EF064C14FF065C150F0A0
:1030E00066C151F067C152F022EC2EF0D8A07BEF00
:1030F00018F07DEF18F0B3EF18F0600E2E6E420E50
:103100002F6EA20E306E0D0E316E88C12AF089C16D
:103110002BF08AC12CF08BC12DF02CEC22F02AC0B0
:10312000A4F12BC0A5F12CC0A6F12DC0A7F1A4C11C
:103130002AF0A5C12BF0A6C12CF0A7C12DF0600E7E
:103140002E6E420E2F6EA20E306E0D0E316E2CECD6
:1031500022F02AC084F02BC085F02CC086F02DC050
:1031600087F06BEF1DF0FF0E0101AC152C6FFF0E09
:10317000AD152D6FFF0EAE152E6F7F0EAF152F6F95
:10318000170E00018C6F2CC18DF02DC18EF02EC159
:103190008FF02FC190F08C67D0EF18F0D8EF18F0B7
:1031A000903590338F338E338D338C2FCBEF18F0D7
:1031B000810E00018D250101A06FFF0E00018E21FF
:1031C0000101A16FFF0E00018F210101A26FFF0E0F
:1031D000000190210101A36F000E7C6F000E7D6F36
:1031E000000E7E6F000E7F6F2FBF03EF19F02C05CE
:1031F000000E2D59000E2E593F0E2F59D8A003EF67
:1032000019F005EF19F009EF1AF0A0C18CF0010ECA
:1032100000018C27000E8D6F000E8E6F800E8F6F59
:10322000000E906F8C6717EF19F01FEF19F09035B3
:1032300090338F338E338D338C2F12EF19F00101C1
:10324000AC5100018D2501017C6FAD5100018E2133
:1032500001017D6FAE5100018F2101017E6FAF51E1
:103260000001902101017F6F810E00018C6FFF0E24
:103270008D6FFF0E8E6FFF0E8F6F170E906F7CC1DC
:1032800091F07DC192F07EC193F07FC194F0906780
:103290004CEF19F054EF19F0943594339333923383
:1032A0009133902F47EF19F0000191518C250101C6
:1032B000A06F000E00018D210101A16F000E000121
:1032C0008E210101A26F000E00018F210101A36F69
:1032D000A0C18CF0FF0E00018D6FFF0E8E6F7F0E70
:1032E0008F6F000E906F8C6778EF19F080EF19F0F8
:1032F000903590338F338E338D338C2F73EF19F0DD
:1033000000018D1D916F8E1D926F8F1D936F901D0B
:10331000946F01017C51000191150101B86F7D513D
:10332000000192150101B96F7E5100019315010151
:10333000BA6F7F51000194150101BB6FB8C1B0F1A4
:10334000B9C1B1F1BAC1B2F1BBC1B3F1A051170813
:1033500000018C6FFF0E01017C1500018D6FFF0EC7
:1033600001017D1500018E6F7F0E01017E150001A8
:103370008F6F000E01017F150001906F000E8D11FF
:10338000916F000E8E11926F800E8F11936F000E51
:103390009011946F8C67CFEF19F0D7EF19F0943537
:1033A00094339333923391338C2FCAEF19F091C039
:1033B0007CF192C07DF193C07EF194C07FF1010158
:1033C000AFBFE7EF19F0E5EF19F0EFEF19F07F1F4E
:1033D0007E1F7D1F7C6D000E7D237E237F239CC17D
:1033E00043F09DC144F09EC145F09FC146F0B0C17D
:1033F00047F0B1C148F0B2C149F0B3C14AF045EC61
:1034000030F043C09CF144C09DF145C09EF146C0E0
:103410009FF164C11AF065C11BF066C11CF067C161
:103420001DF09CC11EF09DC11FF09EC120F09FC1E8
:1034300021F0CCEC1FF01AC0B0F11BC0B1F11CC0E0
:10344000B2F11DC0B3F1B0C1B8F1B1C1B9F1B2C1AF
:10345000BAF1B3C1BBF1B8C190F1B9C191F1BAC130
:1034600092F1BBC193F1000E01019015B86F800E6F
:103470009115B96FFF0E9215BA6FFF0E9315BB6FC2
:10348000B8C1B0F1B9C1B1F1BAC1B2F1BBC1B3F1C8
:10349000B0C12AF0B1C12BF0B2C12CF0B3C12DF0F4
:1034A000000E2E6E720E2F6E310E306E3F0E316E8C
:1034B0002CEC22F02AC074F12BC075F12CC076F1EF
:1034C0002DC077F19CC147F09DC148F09EC149F0E5
:1034D0009FC14AF0B0C143F0B1C144F0B2C145F060
:1034E000B3C146F045EC30F043C094F144C095F1CF
:1034F00045C096F146C097F1180E2E6E720E2F6ED3
:10350000310E306E3F0E316E94C147F095C148F0D8
:1035100096C149F097C14AF064C143F065C144F0D7
:1035200066C145F067C146F045EC30F043C02AF073
:1035300044C02BF045C02CF046C02DF02CEC22F0FE
:103540002AC014F12BC015F12CC016F12DC017F1B3
:1035500014C11AF015C11BF016C11CF017C11DF0E3
:103560008C0E2E6EBE0E2F6EBF0E306E350E316E6F
:10357000B0C12AF0B1C12BF0B2C12CF0B3C12DF013
:103580002CEC22F02AC01EF02BC01FF02CC020F023
:103590002DC021F0CCEC1FF01AC078F11BC079F1DE
:1035A0001CC07AF11DC07BF174C11AF075C11BF00B
:1035B00076C11CF077C11DF078C11EF079C11FF0F3
:1035C0007AC120F07BC121F0CCEC1FF01AC0B4F11D
:1035D0001BC0B5F11CC0B6F11DC0B7F174C147F0F6
:1035E00075C148F076C149F077C14AF0B4C143F0E3
:1035F000B5C144F0B6C145F0B7C146F045EC30F076
:1036000043C094F144C095F145C096F146C097F18E
:1036100078C143F079C144F07AC145F07BC146F0EE
:1036200094C147F095C148F096C149F097C14AF05E
:1036300045EC30F043C044F144C045F145C046F18B
:1036400046C047F1B4C12AF0B5C12BF0B6C12CF089
:10365000B7C12DF0B4C12EF0B5C12FF0B6C130F016
:10366000B7C131F02CEC22F02AC0B0F12BC0B1F17F
:103670002CC0B2F12DC0B3F10E0E1E6EEA0E1F6EFD
:10368000DD0E206EB50E216E4C0E2E6EBB0E2F6E13
:10369000310E306E330E316EB0C12AF0B1C12BF055
:1036A000B2C12CF0B3C12DF02CEC22F02AC01AF0DC
:1036B0002BC01BF02CC01CF02DC01DF0CCEC1FF05B
:1036C0001AC0A4F11BC0A5F11CC0A6F11DC0A7F132
:1036D000550E1E6EB30E1F6E8A0E206E380E216EB2
:1036E000B0C12EF0B1C12FF0B2C130F0B3C131F092
:1036F000A4C12AF0A5C12BF0A6C12CF0A7C12DF0C2
:103700002CEC22F02AC01AF02BC01BF02CC01CF0AD
:103710002DC01DF0CCEC1FF01AC054F11BC055F1A8
:103720001CC056F11DC057F1610E1E6E0B0E1F6EB0
:10373000360E206EBB0E216EB0C12EF0B1C12FF03F
:10374000B2C130F0B3C131F054C12AF055C12BF0F1
:1037500056C12CF057C12DF02CEC22F02AC01AF0E3
:103760002BC01BF02CC01CF02DC01DF0CCEC1FF0AA
:103770001AC048F11BC049F11CC04AF11DC04BF1F1
:10378000AB0E1E6EAA0E1F6E2A0E206E3E0E216E0E
:10379000B0C12EF0B1C12FF0B2C130F0B3C131F0E1
:1037A00048C12AF049C12BF04AC12CF04BC12DF081
:1037B0002CEC22F02AC01AF02BC01BF02CC01CF0FD
:1037C0002DC01DF0CCEC1FF01AC038F11BC039F130
:1037D0001CC03AF11DC03BF1B4C143F0B5C144F087
:1037E000B6C145F0B7C146F0B0C12EF0B1C12FF05F
:1037F000B2C130F0B3C131F038C12AF039C12BF079
:103800003AC12CF03BC12DF02CEC22F02AC047F03D
:103810002BC048F02CC049F02DC04AF045EC30F0E8
:1038200043C080F144C081F145C082F146C083F1BC
:10383000000E1E6E000E1F6E000E206EC00E216E5A
:1038400080C11AF081C11BF082C11CF083C11DF040
:10385000CCEC1FF01AC005F01BC006F01CC007F02E
:103860001DC008F080C12EF081C12FF082C130F060
:1038700083C131F0B4C12AF0B5C12BF0B6C12CF030
:10388000B7C12DF02CEC22F02AC001F02BC002F0C1
:103890002CC003F02DC004F053EC24F001C03CF127
:1038A00002C03DF103C03EF104C03FF144C11EF02F
:1038B00045C11FF046C120F047C121F044C12EF0A0
:1038C00045C12FF046C130F047C131F0B4C12AF0F4
:1038D000B5C12BF0B6C12CF0B7C12DF02CEC22F005
:1038E0002AC01AF02BC01BF02CC01CF02DC01DF0FC
:1038F000CCEC1FF01AC018F11BC019F11CC01AF152
:103900001DC01BF13CC143F03DC144F03EC145F038
:103910003FC146F018C147F019C148F01AC149F03B
:103920001BC14AF045EC30F043C04CF144C04DF1AE
:1039300045C04EF146C04FF1B4C147F0B5C148F0A3
:10394000B6C149F0B7C14AF04CC143F04DC144F093
:103950004EC145F04FC146F045EC30F043C094F104
:1039600044C095F145C096F146C097F1000E436EF4
:10397000000E446E800E456E3F0E466E94C147F0B9
:1039800095C148F096C149F097C14AF045EC30F036
:1039900043C0B4F144C0B5F145C0B6F146C0B7F17B
:1039A000B4C1B8F1B5C1B9F1B6C1BAF1B7C1BBF193
:1039B000B8C1ACF1B9C1ADF1BAC1AEF1BBC1AFF1A3
:1039C0007CC18CF07DC18DF07EC18EF07FC18FF007
:1039D000170ED89000018C378D378E378F37E82E31
:1039E000E9EF1CF08C510101AC2700018D51010160
:1039F000AD2300018E510101AE2300018F51010161
:103A0000AF23170E00018C6FACC18DF0ADC18EF0ED
:103A1000AEC18FF0AFC190F08C6711EF1DF019EFC0
:103A20001DF0903590338F338E338D338C2F0CEF08
:103A30001DF0000190BF29EF1DF090518F118E11E4
:103A400006E18D05D8B027EF1DF029EF1DF041EFFD
:103A50001DF0B4C143F0B5C144F0B6C145F0B7C1E3
:103A600046F07CC147F07DC148F02CEC29F043C002
:103A7000B4F144C0B5F145C0B6F146C0B7F151EF5D
:103A80001DF0ACC1B8F1ADC1B9F1AEC1BAF1AFC171
:103A9000BBF1B8C1B4F1B9C1B5F1BAC1B6F1BBC19E
:103AA000B7F188C12AF089C12BF08AC12CF08BC1F3
:103AB0002DF0B4C12EF0B5C12FF0B6C130F0B7C1B2
:103AC00031F02CEC22F02AC084F02BC085F02CC001
:103AD00086F02DC087F0120057C068F058C069F01A
:103AE00059C06AF05AC06BF068C080F069C081F0BC
:103AF0006AC082F06BC083F0000E000180155B6E1F
:103B0000000E81155C6E800E82155D6E7F0E831532
:103B10005E6E800E5D1809E17F0E5E185B105C1012
:103B2000D8A495EF1DF097EF1DF0C5EF1DF057C01D
:103B30002EF058C02FF059C030F05AC031F057C0A5
:103B40002AF058C02BF059C02CF05AC02DF02CECA4
:103B500022F02AC01AF02BC01BF02CC01CF02DC084
:103B60001DF057C01EF058C01FF059C020F05AC0B9
:103B700021F0CCEC1FF01AC057F01BC058F01CC04D
:103B800059F01DC05AF0CBEF1FF083BFD4EF1DF0EA
:103B900083518211811106E18005D8B0D2EF1DF06A
:103BA000D4EF1DF010EF1EF0FF0E80155B6EFF0EC0
:103BB00081155C6EFF0E82155D6E7F0E83155E6E45
:103BC0005B505C105D105E10D8A4E9EF1DF0EBEFC8
:103BD0001DF0F5EF1DF057C057F058C058F059C010
:103BE00059F05AC05AF0CBEF1FF083BFFCEF1DF025
:103BF000FAEF1DF010EF1EF0000EC96F210EC86F16
:103C0000860E016E100E026EB0EC30F001C057F05F
:103C100002C058F003C059F004C05AF0CBEF1FF0B7
:103C2000170E5B6E80C05CF081C05DF082C05EF0FC
:103C300083C05FF05B661FEF1EF027EF1EF05F345E
:103C40005F325E325D325C325B2E1AEF1EF05CC07A
:103C500078F05DC079F05EC07AF05FC07BF0000163
:103C6000785179117A117B11D8A439EF1EF03BEF0E
:103C70001EF06BEF1EF0000E646F000E656F000EFD
:103C8000666F000E676F50EF1EF0D8908037813757
:103C900082378337010E6427000E6523662367236E
:103CA00082AF55EF1EF057EF1EF045EF1EF0FF0EEE
:103CB00064255B6EFF0E65215C6EFF0E66215D6EF6
:103CC000FF0E67215E6E5B50785F5C50795B5D50E4
:103CD0007A5B5E507B5B810E7827FF0E7923FF0EA7
:103CE0007A23FF0E7B23FF0E80155B6EFF0E81157E
:103CF0005C6E7F0E82155D6E000E83155E6E000E8B
:103D00005B10806F000E5C10816F800E5D10826F03
:103D1000000E5E10836F78A190EF1EF092EF1EF000
:103D20009AEF1EF080518027815181238251822396
:103D3000835183237B357B337A33793378338051D6
:103D40008027815181238251822383518323000E56
:103D5000606F000E616F000E626F000E636F60C0D7
:103D60006CF061C06DF062C06EF063C06FF0000E69
:103D70007C6F000E7D6F000E7E6F010E7F6F09EF6E
:103D80001FF060517C25706F61517D21716F625110
:103D90007E21726F63517F21736F7051805D71510D
:103DA0008159725182598351800A5B6E7351800A26
:103DB0005B58D8A0DEEF1EF0E0EF1EF0FCEF1EF027
:103DC00070517C25606F71517D21616F72517E2130
:103DD000626F73517F21636F7051805F7151815B9E
:103DE0007251825B7351835B7C516C277D516D23D3
:103DF0007E516E237F516F23805180278151812313
:103E00008251822383518323D8907F337E337D3345
:103E10007C337C517D117E117F11D8A412EF1FF0ED
:103E200014EF1FF0C1EF1EF0805181118211831138
:103E3000D8B41DEF1FF01FEF1FF080EF1FF0000E32
:103E4000746F000E756F800E766F3F0E776F74C0C3
:103E50004BF075C04CF076C04DF077C04EF0000EC0
:103E60004F6E000E506E800E516E3F0E526E22EC61
:103E70002EF0D8A03EEF1FF040EF1FF080EF1FF0B4
:103E8000000E0001746F000E756F800E766F3F0E8E
:103E9000776F000E4B6E000E4C6E800E4D6E3F0E17
:103EA0004E6E74C04FF075C050F076C051F077C0C0
:103EB00052F022EC2EF0D8B060EF1FF062EF1FF04E
:103EC0006BEF1FF0020E00016C27000E6D236E23B6
:103ED0006F2380EF1FF0010E00016C155B6E000E6A
:103EE0006D155C6E000E6E155D6E000E6F155E6ECC
:103EF0005B506C275C506D235D506E235E506F23CA
:103F00006CC05BF06DC05CF06EC05DF06FC05EF0C9
:103F10005E345E325D325C325B32000E5B24000147
:103F2000806F000E5C20816F000E5D20826F3F0E5F
:103F30005E20836F78C05BF079C05CF07AC05DF082
:103F40007BC05EF0170ED8905B365C365D365E3611
:103F5000E82EA3EF1FF05B5080275C5081235D505B
:103F600082235E50832380C068F081C069F082C0E4
:103F70006AF083C06BF068C074F069C075F06AC005
:103F800076F06BC077F074C057F075C058F076C00B
:103F900059F077C05AF012001D50800B266E1D504C
:103FA0001D24286E1CAED7EF1FF0D9EF1FF0DAEFFB
:103FB0001FF028802850D8B4E0EF1FF0E2EF1FF088
:103FC000F7EF1FF02828D8A4E8EF1FF0EAEF1FF062
:103FD000F2EF1FF0000E1A6E000E1B6E000E1C6E2C
:103FE000000E1D6E1C8E000E1D6EFFEF1FF0000EEA
:103FF0001A6E000E1B6E000E1C6E000E1D6E215000
:10400000800B276E26502718D8B409EF20F00BEF4D
:1040100020F00CEF20F0268C21502124276E20AEBA
:1040200014EF20F016EF20F017EF20F02780275034
:10403000D8B41DEF20F01FEF20F034EF20F0272838
:10404000D8A425EF20F027EF20F02FEF20F0000E6E
:104050001E6E000E1F6E000E206E000E216E208E52
:10406000000E216E3CEF20F0000E1E6E000E1F6E43
:10407000000E206E000E216E2850275CD8B043EF52
:1040800020F045EF20F06CEF20F026AC4AEF20F056
:104090004CEF20F04EEF20F0800E261A28C029F0B9
:1040A00027C028F029C027F01AC029F01EC01AF036
:1040B00029C01EF01BC029F01FC01BF029C01FF033
:1040C0001CC029F020C01CF029C020F01DC029F020
:1040D00021C01DF029C021F0000E296E285027C0F4
:1040E00022F0236A225E000E235A23BE81EF20F0C5
:1040F000235009E11A0E225CD8A081EF20F083EF53
:1041000020F0BAEF20F01A501B101C101D10D8A47C
:104110008CEF20F08FEF20F0010E90EF20F0000EDA
:10412000296E000E1A6E000E1B6E000E1C6E000E25
:104130001D6E27C028F0C3EF20F029A0A2EF20F0C9
:10414000A4EF20F0AAEF20F0D89029300109296EC1
:10415000ACEF20F0D89029321AA0B1EF20F0B3EFE5
:1041600020F0B4EF20F0298E1D341D321C321B329A
:104170001A32282A2750285CD8A0C1EF20F0C3EFBC
:1041800020F09DEF20F026BCC8EF20F0CAEF20F011
:104190000AEF21F02850D8A4D0EF20F0D2EF20F081
:1041A000DCEF20F0000E1A6E000E1B6E000E1C6E6F
:1041B000000E1D6E2BEF22F01E501A261F501B22E0
:1041C00020501C2221501D221DA0E9EF20F0EBEF12
:1041D00020F097EF21F029A0F0EF20F0F2EF20F08F
:1041E000F8EF20F0D89029300109296EFAEF20F07D
:1041F000D89029321AA0FFEF20F001EF21F002EF52
:1042000021F0298E1D341D321C321B321A32282A0D
:1042100097EF21F01E501A5C1F501B5820501C585D
:104220001D50800A226E2150800A2258D8B01BEF00
:1042300021F01DEF21F048EF21F01A501E5C226E94
:104240001B501F58236E1C502058246E1D5021589F
:10425000256EFF0E22241A6EFF0E23201B6EFF0E0A
:1042600024201C6EFF0E25201D6E800E261A296C40
:104270002950D8A43EEF21F040EF21F050EF21F07B
:10428000010E1A26000E1B221C221D2250EF21F0C7
:104290001E501A5E1F501B5A20501C5A21501D5A86
:1042A0001A501B101C101D10D8A459EF21F05BEF01
:1042B00021F090EF21F02950D8A461EF21F063EFB5
:1042C00021F090EF21F0000E1A6E000E1B6E000E12
:1042D0001C6E000E1D6E2BEF22F0D8901A361B3686
:1042E0001C361D3629AE77EF21F079EF21F07AEFF9
:1042F00021F01A8029A07FEF21F081EF21F085EFD6
:1043000021F0D880293687EF21F0D890293628501F
:10431000D8B48DEF21F08FEF21F090EF21F0280637
:104320001CAE95EF21F097EF21F06DEF21F0000E1C
:10433000276E29AE9EEF21F0A0EF21F0B8EF21F01B
:1043400029C022F07F0E2216D8B4A9EF21F0ABEFDE
:1043500021F0AFEF21F0010E276EB8EF21F01AA087
:10436000B4EF21F0B6EF21F0B8EF21F0ABEF21F080
:104370002750D8B4BEEF21F0C0EF21F0EBEF21F0D1
:10438000010E1A26000E1B221C221D221DA0CBEF9F
:1043900021F0CDEF21F0EBEF21F01AC022F01BC08D
:1043A00023F01CC024F01DC025F025342532243212
:1043B0002332223222C01AF023C01BF024C01CF08A
:1043C00025C01DF02828D8B4E8EF21F0EAEF21F04D
:1043D000EBEF21F0282A2828D8B4F1EF21F0F3EFF1
:1043E00021F0FBEF21F02850D8A4F9EF21F0FBEFEA
:1043F00021F00DEF22F0000E1A6E000E1B6E000E63
:104400001C6E000E1D6E2850D8A409EF22F00BEF91
:1044100022F00DEF22F0000E266E28A012EF22F0FF
:1044200014EF22F017EF22F01C8E18EF22F01C9EE2
:10443000D89028301D6E26AE20EF22F022EF22F019
:1044400023EF22F01D8E1AC01AF01BC01BF01CC0F7
:104450001CF01DC01DF012002D50800B366E2D502B
:104460002D243C6E2CAE37EF22F039EF22F03AEFDC
:1044700022F03C803C50D8B440EF22F042EF22F0D2
:1044800055EF22F03C28D8A448EF22F04AEF22F062
:1044900052EF22F0000E2A6E000E2B6E000E2C6ED4
:1044A000000E2D6E2C8E5DEF22F0000E2A6E000E97
:1044B0002B6E000E2C6E000E2D6E3150800B361AB6
:1044C000315031243B6E30AE68EF22F06AEF22F0BB
:1044D0006BEF22F03B803B50D8B471EF22F073EFCA
:1044E00022F086EF22F03B28D8A479EF22F07BEF70
:1044F00022F083EF22F0000E2E6E000E2F6E000EC3
:10450000306E000E316E308E8EEF22F0000E2E6E69
:10451000000E2F6E000E306E000E316E3B50D8B480
:1045200094EF22F096EF22F09EEF22F03C50D8A4B8
:104530009CEF22F09EEF22F0A8EF22F0000E2A6EF0
:10454000000E2B6E000E2C6E000E2D6E52EF24F01E
:1045500030502A026F00CCFF41F06F00D0FF42F0D4
:104560004150376E386A396A3A6A42503D6E3E6A47
:104570003F6A406A2F502B026F00CCFF41F06F0062
:10458000D0FF42F041503726000E382239223A221D
:1045900042503D26000E3E223F2240222E502C0249
:1045A0006F00CCFF41F06F00D0FF42F04150372642
:1045B000000E382239223A2242503D26000E3E2279
:1045C0003F22402239C03AF038C039F037C038F0C5
:1045D000376A2E502B026F00CCFF41F06F00D0FFE6
:1045E00042F04150372642503822000E3922000E48
:1045F0003A222F502A026F00CCFF41F06F00D0FF0B
:1046000042F04150372642503822000E3922000E27
:104610003A2239C03AF038C039F037C038F0376A3A
:104620002E502A026F00CCFF41F06F00D0FF42F005
:104630004150372642503822000E3922000E3A22CD
:1046400030502B026F00CCFF41F06F00D0FF42F0E2
:1046500041503D2642503E22000E3F22000E402295
:104660002F502C026F00CCFF41F06F00D0FF42F0C2
:1046700041503D2642503E22000E3F22000E402275
:1046800030502C026F00CCFF41F06F00D0FF42F0A1
:104690004150326E4250336E346A356A34C035F060
:1046A00033C034F032C033F0326A32503D263350DA
:1046B0003E2234503F223550402237C032F038C0BD
:1046C00033F039C034F03AC035F0190E6DEF23F0F5
:1046D000D8903532343233323232E82E68EF23F05C
:1046E00032503D2633503E2234503F223550402236
:1046F00039C03AF038C039F037C038F0376A3B502B
:104700003CC032F0336A3226000E3322820E32244D
:10471000416EFF0E3320426EA3EF23F0D8903D365A
:104720003E363F3640363AAE98EF23F09AEF23F00C
:104730009BEF23F03D80D8903736383639363A36FD
:104740004106D8A042063FAEA8EF23F0AAEF23F01F
:104750008EEF23F0000E3B6E3AAEB1EF23F0B3EFD5
:1047600023F0D7EF23F0FF0E3714326EFF0E38140C
:10477000336EFF0E3914346E7F0E3A14356E32509C
:10478000331034103510D8B4C8EF23F0CAEF23F03B
:10479000CEEF23F0010E3B6ED7EF23F03DA0D3EF19
:1047A00023F0D5EF23F0D7EF23F0CAEF23F03B50EF
:1047B000D8B4DDEF23F0DFEF23F003EF24F0010E98
:1047C0003D26000E3E223F22402240A0EAEF23F089
:1047D000ECEF23F003EF24F03DC032F03EC033F0A5
:1047E0003FC034F040C035F03534353234323332E6
:1047F000323232C03DF033C03EF034C03FF035C0FD
:1048000040F0414A422A42BE0EEF24F0425008E1F5
:104810004128D8A00EEF24F010EF24F01AEF24F076
:10482000000E3D6E000E3E6E800E3F6E7F0E406E9F
:1048300048EF24F042BE27EF24F0425006E1410445
:10484000D8B025EF24F027EF24F033EF24F0000E4A
:104850003D6E000E3E6E000E3F6E000E406E000E6E
:10486000366E48EF24F041C03CF0FF0E3D16FF0EBF
:104870003E167F0E3F16000E40163CA042EF24F07D
:1048800044EF24F045EF24F03F8ED8903C30406E4A
:10489000365040123DC02AF03EC02BF03FC02CF0F5
:1048A00040C02DF012000450800B116E04500424FF
:1048B000186E03AE5EEF24F060EF24F061EF24F099
:1048C00018801850D8B467EF24F069EF24F07EEF19
:1048D00024F01828D8A46FEF24F071EF24F079EFBA
:1048E00024F0000E016E000E026E000E036E000E2C
:1048F000046E038E000E046E86EF24F0000E016E2F
:10490000000E026E000E036E000E046E0850800B47
:10491000111A08500824196E07AE91EF24F093EF96
:1049200024F094EF24F019801950D8B49AEF24F0B1
:104930009CEF24F0B1EF24F01928D8A4A2EF24F0C2
:10494000A4EF24F0ACEF24F0000E056E000E066E0E
:10495000000E076E000E086E078E000E086EB9EF8F
:1049600024F0000E056E000E066E000E076E000E9F
:10497000086E0550061007100810D8A4C2EF24F0E6
:10498000C4EF24F0DCEF24F0000E016E000E026E86
:10499000000E036E000E046E800E03127F0E0412D2
:1049A0001150041201C001F002C002F003C003F074
:1049B00004C004F01FEF26F01850D8A4E2EF24F052
:1049C000E4EF24F0EEEF24F0000E016E000E026E14
:1049D000000E036E000E046E1FEF26F0195018C073
:1049E00009F00A6A095E000E0A5A7F0E0924126E47
:1049F000000E0A20136E01C00DF002C00EF003C0BD
:104A00000FF004C010F0000E016E000E026E000EDA
:104A1000036E000E046E000E146E000E156E000E76
:104A2000166E000E176E000E196E4FEF25F019501E
:104A3000D8B41DEF25F01FEF25F036EF25F0D89004
:104A40000D360E360F361036D89001360236033644
:104A5000043617AE2EEF25F030EF25F031EF25F0BC
:104A60000180D890143615361636173605500D5C71
:104A700006500E5807500F5808501058D8A043EF52
:104A800025F045EF25F04EEF25F0178C05500D5E13
:104A900006500E5A07500F5A0850105A192A190E6C
:104AA000196455EF25F057EF25F017EF25F00D505D
:104AB0000E100F101010D8B460EF25F062EF25F043
:104AC0007AEF25F014807AEF25F0D890013602367F
:104AD0000336043617AE6FEF25F071EF25F072EF55
:104AE00025F00180D8901436153616361736120682
:104AF000D8A0130603AE7FEF25F081EF25F065EF18
:104B000025F0000E196E17AE88EF25F08AEF25F01C
:104B1000AEEF25F0FF0E1414096EFF0E15140A6E89
:104B2000FF0E16140B6E7F0E17140C6E09500A1030
:104B30000B100C10D8B49FEF25F0A1EF25F0A5EFD6
:104B400025F0010E196EAEEF25F001A0AAEF25F0B9
:104B5000ACEF25F0AEEF25F0A1EF25F01950D8B459
:104B6000B4EF25F0B6EF25F0DAEF25F0010E0126BF
:104B7000000E02220322042204A0C1EF25F0C3EF9D
:104B800025F0DAEF25F001C009F002C00AF003C0F9
:104B90000BF004C00CF00C340C320B320A32093228
:104BA00009C001F00AC002F00BC003F00CC004F011
:104BB000124A132A13BEE5EF25F0135008E112281C
:104BC000D8A0E5EF25F0E7EF25F0F2EF25F0000E95
:104BD000136E1268000E016E000E026E000E036E60
:104BE000000E046E13BEFFEF25F0135006E1120411
:104BF000D8B0FDEF25F0FFEF25F00DEF26F0000E09
:104C0000136E000E126E000E016E000E026E000E8C
:104C1000036E000E046E000E116E12C018F018A084
:104C200014EF26F016EF26F019EF26F0038E1AEF98
:104C300026F0039ED8901830046ED0EF24F01200B6
:104C4000000E166E000E176E000E186E000E196E16
:104C5000000E156E3701E0B730EF26F032EF26F088
:104C6000B8EF26F020EE01F01350D9261450DA22C6
:104C70006F0078FF01F06F0078FF02F06F0078FF9F
:104C800003F06F0078FF04F060004FF0D9FF600080
:104C900053F0DAFFDF50056E160E066E000E076E3B
:104CA000170E086E000E096E180E0A6E000E0B6EBF
:104CB000190E0C6E000E0D6E2FEC2CF060005BF0E8
:104CC000E3F760005FF0E4F7600063F0E1F7600095
:104CD00067F0E2F720EE05F01350D9261450DA22DF
:104CE000DF503701E56F20EE06F01350D92614503F
:104CF000DA22DF50E66F20EE07F01350D926145069
:104D0000DA22DF50E76F20EE08F01350D926145056
:104D1000DA22DF50E86F20EE09F01350D926145044
:104D2000DA22DF50E96F20EE0AF01350D926145032
:104D3000DA22DF50EA6F20EE0BF01350D926145020
:104D4000DA22DF50EB6F20EE0CF01350D92614500E
:104D5000DA22DF50EC6F20EE0DF01350D9261450FC
:104D6000DA22DF50ED6FE087010E156ECEEF27F0EF
:104D7000D0B7BDEF26F0BFEF26F043EF27F020EECF
:104D800001F01350D9261450DA226F0078FF01F099
:104D90006F0078FF02F06F0078FF03F06F0078FF7C
:104DA00004F060004FF0D9FF600053F0DAFFDF50ED
:104DB000056E160E066E000E076E170E086E000EBC
:104DC000096E180E0A6E000E0B6E190E0C6E000E98
:104DD0000D6E2FEC2CF060005BF0D3F760005FF0FD
:104DE000D4F7600063F0D1F7600067F0D2F720EEEF
:104DF00005F01350D9261450DA22DF503701D56F51
:104E000020EE06F01350D9261450DA22DF50D66F68
:104E100020EE07F01350D9261450DA22DF50D76F56
:104E200020EE08F01350D9261450DA22DF50D86F44
:104E300020EE09F01350D9261450DA22DF50D96F32
:104E400020EE0AF01350D9261450DA22DF50DA6F20
:104E500020EE0BF01350D9261450DA22DF50DB6F0E
:104E600020EE0CF01350D9261450DA22DF50DC6FFC
:104E700020EE0DF01350D9261450DA22DF50DD6FEA
:104E8000D087B4EF26F0C0B748EF27F04AEF27F0FD
:104E9000CEEF27F020EE01F01350D9261450DA227D
:104EA0006F0078FF01F06F0078FF02F06F0078FF6D
:104EB00003F06F0078FF04F060004FF0D9FF60004E
:104EC00053F0DAFFDF50056E160E066E000E076E09
:104ED000170E086E000E096E180E0A6E000E0B6E8D
:104EE000190E0C6E000E0D6E2FEC2CF060005BF0B6
:104EF000C3F760005FF0C4F7600063F0C1F76000C3
:104F000067F0C2F720EE05F01350D9261450DA22CC
:104F1000DF503701C56F20EE06F01350D92614502C
:104F2000DA22DF50C66F20EE07F01350D926145056
:104F3000DA22DF50C76F20EE08F01350D926145044
:104F4000DA22DF50C86F20EE09F01350D926145032
:104F5000DA22DF50C96F20EE0AF01350D926145020
:104F6000DA22DF50CA6F20EE0BF01350D92614500E
:104F7000DA22DF50CB6F20EE0CF01350D9261450FC
:104F8000DA22DF50CC6F20EE0DF01350D9261450EA
:104F9000DA22DF50CD6FC087B4EF26F01550120033
:104FA000000E166E80AED7EF27F0D9EF27F07EEF18
:104FB00028F082A6DEEF27F0E0EF27F008EF28F0D8
:104FC000600053F0D9FF600057F0DAFF020EDF6E89
:104FD0006F0010FE01F06F0004FE02F06F0008FE8B
:104FE00003F08350FBEC2CF020EE01F01450D92696
:104FF0001550DA22600007F0DEFF60000BF0DEFFE4
:1050000060000FF0DEFF600013F0DEFF28EF28F0F5
:10501000600053F0D9FF600057F0DAFF010EDF6E39
:105020006F0008FE01F08150AEEC2FF020EE01F091
:105030001450D9261550DA22600007F0DEFF600018
:105040000BF0DEFF60000FF0DEFF600013F0DEFF0C
:1050500020EE05F01450D9261550DA226F0017FE05
:10506000DFFF20EE06F01450D9261550DA226F002B
:105070001BFEDFFF20EE07F01450D9261550DA2270
:105080006F001FFEDFFF20EE08F01450D9261550E8
:10509000DA226F0023FEDFFF20EE09F01450D9263C
:1050A0001550DA226F0027FEDFFF20EE0AF01450C1
:1050B000D9261550DA226F002BFEDFFF20EE0BF011
:1050C0001450D9261550DA226F002FFEDFFF20EE94
:1050D0000CF01450D9261550DA226F0033FEDFFF92
:1050E00020EE0DF01450D9261550DA226F0037FE4D
:1050F000DFFF809E010E166E2AEF29F03701F0AF18
:1051000084EF28F086EF28F02AEF29F0F2A78BEF42
:1051100028F08DEF28F0B5EF28F0600053F0D9FFAC
:10512000600057F0DAFF020EDF6E6D00D0FF01F075
:105130006D00C4FF02F06D00C8FF03F0F351FBECFB
:105140002CF020EE01F01450D9261550DA22600020
:1051500007F0DEFF60000BF0DEFF60000FF0DEFF07
:10516000600013F0DEFFD5EF28F0600053F0D9FFA8
:10517000600057F0DAFF010EDF6E6D00C8FF01F02E
:10518000F151AEEC2FF020EE01F01450D92615505D
:10519000DA22600007F0DEFF60000BF0DEFF600047
:1051A0000FF0DEFF600013F0DEFF20EE05F014507C
:1051B000D9261550DA226D00D7FFDFFF20EE06F06A
:1051C0001450D9261550DA226D00DBFFDFFF20EEE8
:1051D00007F01450D9261550DA226D00DFFFDFFFEB
:1051E00020EE08F01450D9261550DA226D00E3FFA6
:1051F000DFFF20EE09F01450D9261550DA226D0099
:10520000E7FFDFFF20EE0AF01450D9261550DA220E
:105210006D00EBFFDFFF20EE0BF01450D926155088
:10522000DA226D00EFFFDFFF20EE0CF01450D926DC
:105230001550DA226D00F3FFDFFF20EE0DF0145061
:10524000D9261550DA226D00F7FFDFFF3701F09FF6
:105250007AEF28F01650120043C051F044C052F0CB
:1052600045C053F046C054F048BE40EF29F04850C6
:1052700009E1800E475CD8A040EF29F042EF29F009
:10528000A0EF29F051C02AF052C02BF053C02CF0EF
:1052900054C02DF0000E2E6E000E2F6E000E306EDC
:1052A0007F0E316E2CEC22F02AC051F02BC052F050
:1052B0002CC053F02DC054F0810E4726FF0E48221B
:1052C00048BE6CEF29F0485009E1800E475CD8A039
:1052D0006CEF29F06EEF29F00AEF2AF051C02AF0A6
:1052E00052C02BF053C02CF054C02DF0000E2E6E87
:1052F000000E2F6E000E306E7F0E316E2CEC22F001
:105300002AC051F02BC052F02CC053F02DC054F0E5
:10531000810E4726FF0E482248BE98EF29F04850DC
:1053200009E1800E475CD8A098EF29F09AEF29F0A8
:105330000AEF2AF0000E486E7F0E476E0AEF2AF041
:1053400048AEACEF29F0820E475CFF0E4858D8B04B
:10535000ACEF29F0AEEF29F00AEF2AF051C02AF0A5
:1053600052C02BF053C02CF054C02DF0000E2E6E06
:10537000000E2F6E800E306E0C0E316E2CEC22F073
:105380002AC051F02BC052F02CC053F02DC054F065
:10539000660E4726000E482248AED8EF29F0820E4E
:1053A000475CFF0E4858D8B0D8EF29F0DAEF29F063
:1053B0000AEF2AF051C02AF052C02BF053C02CF053
:1053C00054C02DF0000E2E6E000E2F6E800E306E2B
:1053D0000C0E316E2CEC22F02AC051F02BC052F092
:1053E0002CC053F02DC054F0660E4726000E482204
:1053F00048AE04EF2AF0820E475CFF0E4858D8B042
:1054000004EF2AF006EF2AF00AEF2AF0FF0E486EAA
:10541000820E476E7F0E4724496E000E48204A6E6A
:105420004B6A4C6A170ED89049364A364B364C3682
:10543000E82E13EF2AF049C04DF04AC04EF04BC0A1
:105440004FF04CC050F04DC02AF04EC02BF04FC072
:105450002CF050C02DF051C02EF052C02FF053C090
:1054600030F054C031F02CEC22F02AC043F02BC0B5
:1054700044F02CC045F02DC046F043C043F044C07A
:1054800044F045C045F046C046F01200000E13EC53
:105490002FF0CA9A040E3D01126F1169000E116FB0
:1054A00000D000F06F0040F4BCF03D01116900D065
:1054B00000F06F0040F4BDF0000E3D01116F00D010
:1054C00000F06F0040F4BEF000D000F06F0040F438
:1054D000BFF0CA8AF0EC30F0BC84BFC097F0000186
:1054E000986B996B9A6B0E0ED890973798379937BF
:1054F0009A37E82E74EF2AF0BDC09BF09C6B9D6B31
:105500009E6B060ED8909B379C379D379E37E82EB2
:1055100082EF2AF0BEC09FF0D8909F33D8909F337F
:105520009F519B25A06F000E9C21A16F000E9D2115
:10553000A26F000E9E21A36F9751A025C06F9851B6
:10554000A121C16F9951A221C26F9A51A321C36FAA
:10555000000E886F000E896F880E8A6F410E8B6F68
:10556000000E846F000E856F000E866F400E876FF1
:1055700044EC08F084C0A4F085C0A5F086C0A6F075
:1055800087C0A7F0000E1E6E000E1F6E800E206EEC
:10559000BF0E216EA4C005F0A5C006F0A6C007F09E
:1055A000A7C008F0000E016E000E026EB40E036E6E
:1055B000430E046E53EC24F001C01AF002C01BF03D
:1055C00003C01CF004C01DF0CCEC1FF01AC02AF080
:1055D0001BC02BF01CC02CF01DC02DF0C0C001F072
:1055E000C1C002F0C2C003F0C3C004F0000E55EC0D
:1055F0002BF001C02EF002C02FF003C030F004C029
:1056000031F02CEC22F02AC0DFF02BC0E0F02CC0EF
:10561000E1F02DC0E2F0E30E016E000E026EDF0E2F
:10562000036E000E046E000E066E040E056E18EC7E
:1056300030F0000E0001CF6F010EA86F9551976FEB
:105640009651986F996B9A6B780E9725A96F000EFB
:105650009821AA6F000E9921AB6F000E9A21AC6FB2
:10566000080EAD6FE3C0AEF0E4C0AFF0E5C0B0F03F
:10567000E6C0B1F0C0C0B2F0C1C0B3F0C2C0B4F077
:10568000C3C0B5F04CEF2BF0A80E136E000E146ED5
:1056900020EC26F00001CF6FCF51D8B452EF2BF0A1
:1056A00054EF2BF044EF2BF01200096E0950D8B4E0
:1056B0005CEF2BF05EEF2BF080EF2BF004BE65EF7C
:1056C0002BF063EF2BF080EF2BF001C005F002C050
:1056D00006F003C007F004C008F0051E061E071EF2
:1056E000081E052A000E06220722082205C00BF01C
:1056F00006C00CF007C00DF008C00EF088EF2BF0CC
:1057000001C00BF002C00CF003C00DF004C00EF09D
:105710000150021003100410D8A491EF2BF093EF66
:105720002BF09DEF2BF0000E016E000E026E000EAE
:10573000036E000E046E2EEF2CF0960E0A6EA7EF8D
:105740002BF00A2AD8900E320D320C320B32000E9A
:105750000B14056E000E0C14066E000E0D14076E71
:10576000FE0E0E14086E0550061007100810D8A47F
:10577000BCEF2BF0BEEF2BF0A1EF2BF0CCEF2BF01A
:105780000A2A010E0B26000E0C220D220E22D890A2
:105790000E320D320C320B32000E0B14056E000E61
:1057A0000C14066E000E0D14076EFF0E0E14086E1C
:1057B0000550061007100810D8A4E1EF2BF0E3EF16
:1057C0002BF0C0EF2BF0EBEF2BF00A06D8900B3646
:1057D0000C360D360E360DBEF0EF2BF0F2EF2BF03F
:1057E000FAEF2BF0020E0A60F8EF2BF0FAEF2BF035
:1057F000E5EF2BF00AB0FFEF2BF001EF2CF002EFFA
:105800002CF00D9ED8900A320AC005F0066A076A8D
:10581000086A05C008F0076A066A056A05500B1297
:1058200006500C1207500D1208500E120950D8B431
:105830001CEF2CF01EEF2CF026EF2CF004BE25EF11
:105840002CF023EF2CF026EF2CF00E8E0BC001F085
:105850000CC002F00DC003F00EC004F01200020EE6
:105860000518D8A436EF2CF038EF2CF0C6EF2CF04A
:10587000600023F0D9FF600027F0DAFF600007F036
:10588000DFFF01C00EF002C00FF003C010F004C033
:1058900011F00FC00EF010C00FF011C010F0116A1F
:1058A0000EC001F00FC002F010C003F011C004F0F0
:1058B00060001BF0D9FF60001FF0DAFF600007F006
:1058C000DFFF01C00EF002C00FF003C010F004C0F3
:1058D00011F00FC00EF010C00FF011C010F0116ADF
:1058E0000EC001F00FC002F010C003F011C004F0B0
:1058F0000150030B126E01C00EF002C00FF003C086
:1059000010F004C011F0030ED8900E360F3610368A
:105910001136E82E84EF2CF00EC001F00FC002F01B
:1059200010C003F011C004F00150E00B1224126EFD
:105930001250080F126E1250EB0B600033F0D9FFBB
:10594000600037F0DAFFDF6E01C00EF002C00FF02A
:1059500003C010F004C011F00FC00EF010C00FF023
:1059600011C010F0116A0EC001F00FC002F010C09B
:1059700003F011C004F060002BF0D9FF60002FF09D
:10598000DAFF600007F0DFFFFAEF2CF060001BF099
:10599000D9FF60001FF0DAFF000EDF6E600023F019
:1059A000D9FF600027F0DAFF000EDF6E01C00EF0B5
:1059B00002C00FF003C010F004C011F0050ED89023
:1059C0000E360F3610361136E82EDFEF2CF00EC0F3
:1059D00001F00FC002F010C003F011C004F060002D
:1059E00033F0D9FF600037F0DAFF600007F0DFFF27
:1059F000A4EF2CF01200096E000E106E000E116E56
:105A0000000E126E000E136E0350030B0E6E033861
:105A1000E842070B0F6E0250056E066AD8900536F5
:105A20000636D89005360636D8900536063605C0B7
:105A300010F006C011F0000E11BEFF0E126E136EB4
:105A40000F501024106E000E1120116E000E122047
:105A5000126E000E1320136E10C005F011C006F078
:105A600012C007F013C008F0020ED89005360636B3
:105A700007360836E82E35EF2DF005C010F006C0C9
:105A800011F007C012F008C013F00E501024106E71
:105A9000000E1120116E000E1220126E000E132047
:105AA000136E10C006F011C007F012C008F0056AAE
:105AB00005C010F006C011F007C012F008C013F0C6
:105AC00009501024106E000E1120116E000E1220CD
:105AD000126E000E1320136E10C006F011C007F0F6
:105AE00012C008F0056A05C010F006C011F007C02A
:105AF00012F008C013F001501024106E000E112097
:105B0000116E000E1220126E000E1320136E10C0C4
:105B10000AF011C00BF012C00CF013C00DF00AC057
:105B200001F00BC002F00CC003F00DC004F0120035
:105B3000E5EC30F0C494C492C496C49ACA8AC39463
:105B4000C386BC94020E1B6E000E1A6EEAEC2FF098
:105B5000BC82D10E146E000E156ED0EC27F0000939
:105B6000D8B4B5EF2DF0B7EF2DF0A9EF2DF0BC8430
:105B7000780E0001D219D311D411D511D8B4C3EFC6
:105B80002DF0C5EF2DF003EF2EF0CC51CD11D8B490
:105B9000CCEF2DF0CEEF2DF0A9EF2DF0000E966F8B
:105BA000800E956F46EC2AF00D0E0001B66FFB0ECD
:105BB000E82EFED7B62FFCD700D0A9EF2DF0020EAD
:105BC0001B6E000E1A6EEAEC2FF0A9EF2DF0D8C074
:105BD000D0F0000ECD6F010ECC6F010E1B6E000ECB
:105BE0001A6EEAEC2FF0A9EF2DF0000ECD6F000E2B
:105BF000CC6FEDEF2DF0010E966F800E956F46EC99
:105C00002AF0A9EF2DF0D751B66FB76BB751000A44
:105C1000D8B40DEF2EF0A9EF2DF0B651000AD8B48C
:105C2000DFEF2DF0010AD8B4E7EF2DF0030AD8B466
:105C3000F5EF2DF0010AD8B4FBEF2DF0A9EF2DF010
:105C4000FEEF7FF0000E4B14536E000E4C14546E9A
:105C5000800E4D14556E7F0E4E14566E53505410D8
:105C600055105610D8A437EF2EF039EF2EF041EF33
:105C70002EF0000E4B6E000E4C6E000E4D6E000EA0
:105C80004E6E000E4F14536E000E5014546E800E64
:105C90005114556E7F0E5214566E535054105510B9
:105CA0005610D8A456EF2EF058EF2EF060EF2EF0DD
:105CB000000E4F6E000E506E000E516E000E526EB2
:105CC0004EAE65EF2EF067EF2EF070EF2EF04B6CBE
:105CD0004C1ED8B04C2A4D1ED8B04D2A800E4E56C0
:105CE00052AE75EF2EF077EF2EF080EF2EF04F6C66
:105CF000501ED8B0502A511ED8B0512A800E52568C
:105D0000000E4B1A000E4C1A000E4D1A800E4E1A41
:105D1000000E4F1A000E501A000E511A800E521A21
:105D20004F504B5C50504C5851504D5852504E585B
:105D3000D8B09DEF2EF09FEF2EF0A2EF2EF0D8906E
:105D4000A3EF2EF0D8801200800E8F6E8E50E00BE5
:105D5000800AD8A4AEEF2EF0B0EF2EF0A6EF2EF012
:105D6000000E916E000E3701006F000EBA6F000E2C
:105D7000BB6F000EB86F000EB96F000EBE6F000E45
:105D8000BF6F000EBC6F000EBD6F000EA26F000E45
:105D9000A36F000EA06F000EA16F000EA66F000E85
:105DA000A76F000EA46F000EA56F000EAA6F000E65
:105DB000AB6F000EA86F000EA96F000EAE6F000E45
:105DC000AF6F000EAC6F000EAD6F000EB26F000E25
:105DD000B36F000EB06F000EB16F000EB66F000E05
:105DE000B76F000EB46F000EB56F000E036F980E04
:105DF000046F810E056F3901A59D958D9585958759
:105E00009589A585A587A589000E8F6E6F0038FE40
:105E100001F0E00E0116D8A410EF2FF012EF2FF0D2
:105E200006EF2FF01200026E3D0114BF1AEF2FF0A3
:105E30001CEF2FF071EF2FF00250050D110EF3241F
:105E4000F66E100EF420F76E08006F00D7FF14FDF9
:105E50000250050D010EF326000EF422110EF3245C
:105E6000F66E100EF420F76E08006F00D7FF15FDD8
:105E70000250050D020EF326000EF422110EF3243B
:105E8000F66E100EF420F76E08006F00D7FF16FDB7
:105E90000250050D030EF326000EF422110EF3241A
:105EA000F66E100EF420F76E08006F00D7FF19FD94
:105EB0000250050D040EF326000EF422110EF324F9
:105EC000F66E100EF420F76E08006F00D4FF01F09C
:105ED000014601460146C4500118F70B0118C46E73
:105EE000148F1200200EBA6EBA8A000EBB6E000E1E
:105EF000BC6E000EC26EC29AFB0EC36EC394D70E68
:105F0000C46EC494000E3A01606F000E506F000E14
:105F1000406F000E816F000E516F000E416F000E3A
:105F2000616F000E426F000E526F000E626F436988
:105F300053696369446954696469080E846F200E6B
:105F4000056F130EE06F1E0E136F330E0A6F0B0EEC
:105F5000ED6F1F0E156F140EE16F1200076E0750E4
:105F6000056E066AD89005360636D8900536063690
:105F7000D8900536063605C00CF006C00DF0000EB0
:105F80000DBEFF0E0E6E0F6E01C005F0050E066E03
:105F9000D8900532062EC8EF2FF005500C240C6E59
:105FA000000E0D200D6E000E0E200E6E000E0F2046
:105FB0000F6E0CC008F00DC009F00EC00AF00FC043
:105FC0000BF008C001F009C002F00AC003F00BC0DA
:105FD00004F01200000E0001CF6F010E206E1A5067
:105FE0001C6E1B501D6E1E6A1F6A780E1C24216ECB
:105FF000000E1D20226E000E1E20236E000E1F209C
:10600000246E010E256E330E266E0FEF30F0200E3B
:10601000136E000E146E20EC26F00001CF6FCF51EE
:10602000D8B415EF30F017EF30F007EF30F0120072
:1060300003C009F004C00AF001C007F002C008F074
:1060400037EF30F0600027F0D9FF60002BF0DAFF67
:10605000DF500B6E094A0A2A60001FF0D9FF60006A
:1060600023F0DAFF60002FF0DFFF074A082A050659
:10607000D8A00606052806E10628D8A442EF30F08D
:1060800044EF30F022EF30F01200000E471A000EFD
:10609000481A000E491A800E4A1A43C01AF044C02A
:1060A0001BF045C01CF046C01DF047C01EF048C0A4
:1060B0001FF049C020F04AC021F0CCEC1FF01AC0FC
:1060C00043F01BC044F01CC045F01DC046F0120058
:1060D0000150021003100410D8B471EF30F073EFC8
:1060E00030F07BEF30F0000E011A000E021A000EA5
:1060F000031A800E041A01C001F002C002F003C0AE
:1061000003F004C004F01200B8C005F0B9C006F0F6
:10611000BAC007F0BBC008F001C005F002C006F02D
:1061200003C007F004C008F0089E05C001F006C0D7
:1061300002F007C003F008C004F01200000E39019D
:10614000C06F000EC16F000EC26F000EC36F000E55
:10615000C46F000EC56F000EC66F000EC76F120031
:10616000FF0E056EFF0E066EFF0E076E7F0E086EA9
:1061700005C001F006C002F007C003F008C004F03B
:106180001200020E3D01146F040E156F030E166F00
:10619000000E1C6F010E196FC4961200600E3901BB
:1061A000D96F000EDB6F000EDD6F050EDF6F000E86
:1061B000DE6F120000EEB8F02F0EEE6AE806FDE189
:1061C000000EF86E000198EF2DF09EEC30F072ECAE
:1061D0002FF0CEEC30F0C1EC30F0A4EC2EF0120039
:0661E0003D01149F1200B6
:04FFFC00DAEF30F018
:020000040020DA
:10000000FFFFFFFFFFFFFFFFFFFFFFFFFFFFFFFF00
:020000040030CA
:0A000000ECFFF7FF9FFFFFFFFFFF7B
:00000001FF
