:040000000DEF00F010
:0400080012EF0BF0F8
:06001800FF0051EF11F0A2
:0B1000000000040301000300000000DA
:10100C00000E186E000E196E000E1A6E000E1B6E7E
:10101C00000E176E3701E0B716EF08F018EF08F066
:10102C009EEF08F020EE01F01550D9261650DA226A
:10103C006F0078FF03F06F0078FF04F06F0078FF0B
:10104C0005F06F0078FF06F0600057F0D9FF6000E4
:10105C005BF0DAFFDF50076E180E086E000E096E9B
:10106C00190E0A6E000E0B6E1A0E0C6E000E0D6E23
:10107C001B0E0E6E000E0F6EDDEC0CF0600063F0BC
:10108C00E3F7600067F0E4F760006BF0E1F76000F5
:10109C006FF0E2F720EE05F01550D9261650DA2243
:1010AC00DF503701E56F20EE06F01550D9261650AB
:1010BC00DA22DF50E66F20EE07F01550D9261650D5
:1010CC00DA22DF50E76F20EE08F01550D9261650C3
:1010DC00DA22DF50E86F20EE09F01550D9261650B1
:1010EC00DA22DF50E96F20EE0AF01550D92616509F
:1010FC00DA22DF50EA6F20EE0BF01550D92616508D
:10110C00DA22DF50EB6F20EE0CF01550D92616507A
:10111C00DA22DF50EC6F20EE0DF01550D926165068
:10112C00DA22DF50ED6FE087010E176EB4EF09F095
:10113C00D0B7A3EF08F0A5EF08F029EF09F020EEE7
:10114C0001F01550D9261650DA226F0078FF03F003
:10115C006F0078FF04F06F0078FF05F06F0078FFE8
:10116C0006F0600057F0D9FF60005BF0DAFFDF504B
:10117C00076E180E086E000E096E190E0A6E000E20
:10118C000B6E1A0E0C6E000E0D6E1B0E0E6E000EFC
:10119C000F6EDDEC0CF0600063F0D3F7600067F0CD
:1011AC00D4F760006BF0D1F760006FF0D2F720EE4F
:1011BC0005F01550D9261650DA22DF503701D56FBD
:1011CC0020EE06F01550D9261650DA22DF50D66FD5
:1011DC0020EE07F01550D9261650DA22DF50D76FC3
:1011EC0020EE08F01550D9261650DA22DF50D86FB1
:1011FC0020EE09F01550D9261650DA22DF50D96F9F
:10120C0020EE0AF01550D9261650DA22DF50DA6F8C
:10121C0020EE0BF01550D9261650DA22DF50DB6F7A
:10122C0020EE0CF01550D9261650DA22DF50DC6F68
:10123C0020EE0DF01550D9261650DA22DF50DD6F56
:10124C00D0879AEF08F0C0B72EEF09F030EF09F015
:10125C00B4EF09F020EE01F01550D9261650DA2221
:10126C006F0078FF03F06F0078FF04F06F0078FFD9
:10127C0005F06F0078FF06F0600057F0D9FF6000B2
:10128C005BF0DAFFDF50076E180E086E000E096E69
:10129C00190E0A6E000E0B6E1A0E0C6E000E0D6EF1
:1012AC001B0E0E6E000E0F6EDDEC0CF0600063F08A
:1012BC00C3F7600067F0C4F760006BF0C1F7600023
:1012CC006FF0C2F720EE05F01550D9261650DA2231
:1012DC00DF503701C56F20EE06F01550D926165099
:1012EC00DA22DF50C66F20EE07F01550D9261650C3
:1012FC00DA22DF50C76F20EE08F01550D9261650B1
:10130C00DA22DF50C86F20EE09F01550D92616509E
:10131C00DA22DF50C96F20EE0AF01550D92616508C
:10132C00DA22DF50CA6F20EE0BF01550D92616507A
:10133C00DA22DF50CB6F20EE0CF01550D926165068
:10134C00DA22DF50CC6F20EE0DF01550D926165056
:10135C00DA22DF50CD6FC0879AEF08F017501200D9
:10136C00000E186E80AEBDEF09F0BFEF09F064EF10
:10137C000AF082A6C4EF09F0C6EF09F0EEEF09F00F
:10138C0060005BF0D9FF60005FF0DAFF020EDF6EE9
:10139C006F0010FE03F06F0004FE04F06F0008FEF7
:1013AC0005F083506CEC0EF020EE01F01650D926AF
:1013BC001750DA2260000FF0DEFF600013F0DEFF42
:1013CC00600017F0DEFF60001BF0DEFF0EEF0AF08E
:1013DC0060005BF0D9FF60005FF0DAFF010EDF6E9A
:1013EC006F0008FE03F081508AEC10F020EE01F043
:1013FC001650D9261750DA2260000FF0DEFF60007D
:10140C0013F0DEFF600017F0DEFF60001BF0DEFF64
:10141C0020EE05F01650D9261750DA226F0017FE71
:10142C00DFFF20EE06F01650D9261750DA226F0097
:10143C001BFEDFFF20EE07F01650D9261750DA22DC
:10144C006F001FFEDFFF20EE08F01650D926175054
:10145C00DA226F0023FEDFFF20EE09F01650D926AA
:10146C001750DA226F0027FEDFFF20EE0AF016502D
:10147C00D9261750DA226F002BFEDFFF20EE0BF07F
:10148C001650D9261750DA226F002FFEDFFF20EE00
:10149C000CF01650D9261750DA226F0033FEDFFFFE
:1014AC0020EE0DF01650D9261750DA226F0037FEB9
:1014BC00DFFF809E010E186E10EF0BF03701F0AFBE
:1014CC006AEF0AF06CEF0AF010EF0BF0F2A771EF75
:1014DC000AF073EF0AF09BEF0AF060005BF0D9FFA3
:1014EC0060005FF0DAFF020EDF6E6D00D0FF03F0DC
:1014FC006D00C4FF04F06D00C8FF05F0F3516CECF7
:10150C000EF020EE01F01650D9261750DA226000AA
:10151C000FF0DEFF600013F0DEFF600017F0DEFF5F
:10152C0060001BF0DEFFBBEF0AF060005BF0D9FF40
:10153C0060005FF0DAFF010EDF6E6D00C8FF03F094
:10154C00F1518AEC10F020EE01F01650D92617500C
:10155C00DA2260000FF0DEFF600013F0DEFF6000A7
:10156C0017F0DEFF60001BF0DEFF20EE05F01650DA
:10157C00D9261750DA226D00D7FFDFFF20EE06F0D8
:10158C001650D9261750DA226D00DBFFDFFF20EE54
:10159C0007F01650D9261750DA226D00DFFFDFFF57
:1015AC0020EE08F01650D9261750DA226D00E3FF12
:1015BC00DFFF20EE09F01650D9261750DA226D0005
:1015CC00E7FFDFFF20EE0AF01650D9261750DA227B
:1015DC006D00EBFFDFFF20EE0BF01650D9261750F5
:1015EC00DA226D00EFFFDFFF20EE0CF01650D9264B
:1015FC001750DA226D00F3FFDFFF20EE0DF01650CE
:10160C00D9261750DA226D00F7FFDFFF3701F09F64
:10161C0060EF0AF0185012006F00E8FF01F06F0045
:10162C00ECFF02F0390192AB1EEF0BF020EF0BF048
:10163C0036EF0BF0A2AB25EF0BF027EF0BF036EFEC
:10164C000BF002D834EF0BF00500FA6E00017A5162
:10165C00FD6E7B51FE6EFF6AFA50120000EF0CF02B
:10166C0092AD3BEF0BF03DEF0BF053EF0BF0A2AD57
:10167C0042EF0BF044EF0BF053EF0BF002D851EFAD
:10168C000BF00500FA6E00017E51FD6E7F51FE6E6F
:10169C00FF6AFA50120000EF0CF092A958EF0BF011
:1016AC005AEF0BF070EF0BF0A2A95FEF0BF061EFAC
:1016BC000BF070EF0BF002D86EEF0BF00500FA6E2A
:1016CC0000017C51FD6E7D51FE6EFF6AFA501200D6
:1016DC0000EF0CF095AD75EF0BF077EF0BF082EFA0
:1016EC000BF0A5AD7CEF0BF07EEF0BF082EF0BF067
:1016FC0082EC11F000EF0CF095AB87EF0BF089EF5B
:10170C000BF094EF0BF0A5AB8EEF0BF090EF0BF012
:10171C0094EF0BF009EC0FF000EF0CF095A399EFA0
:10172C000BF09BEF0BF0A6EF0BF0A5A3A0EF0BF0CB
:10173C00A2EF0BF0A6EF0BF0BEEC11F000EF0CF0EB
:10174C0095AFABEF0BF0ADEF0BF0B8EF0BF0A5AF27
:10175C00B2EF0BF0B4EF0BF0B8EF0BF0DCEC11F0D8
:10176C0000EF0CF095A1BDEF0BF0BFEF0BF0CAEF43
:10177C000BF0A5A1C4EF0BF0C6EF0BF0CAEF0BF00A
:10178C00CDEC11F000EF0CF095A9CFEF0BF0D1EFF1
:10179C000BF0DCEF0BF0A5A9D6EF0BF0D8EF0BF0AC
:1017AC00DCEF0BF091EC11F000EF0CF095A7E1EFF2
:1017BC000BF0E3EF0BF0EEEF0BF0A5A7E8EF0BF05F
:1017CC00EAEF0BF0EEEF0BF0A0EC11F000EF0CF0E9
:1017DC0095A5F3EF0BF0F5EF0BF000EF0CF0A5A5D2
:1017EC00FAEF0BF0FCEF0BF000EF0CF0AFEC11F09C
:1017FC0000EF0CF060000BF0FBFF600007F0FAFF4D
:10180C001100800E8F6E8E50E00B800AD8A411EF61
:10181C000CF013EF0CF009EF0CF0000E916E000EB3
:10182C003701006F009F000EBA6F000EBB6F000EE9
:10183C00B86F000EB96F000EBE6F000EBF6F000EBA
:10184C00BC6F000EBD6F000EA26F000EA36F000EDA
:10185C00A06F000EA16F000EA66F000EA76F000EFA
:10186C00A46F000EA56F000EAA6F000EAB6F000EDA
:10187C00A86F000EA96F000EAE6F000EAF6F000EBA
:10188C00AC6F000EAD6F000EB26F000EB36F000E9A
:10189C00B06F000EB16F000EB66F000EB76F000E7A
:1018AC00B46F000EB56F000E036FD80E046F410EAF
:1018BC00056F059DD20E036E240E046E4AEC12F0D9
:1018CC003901A5919581D00E036E240E046E40EC67
:1018DC0012F03901A5939583CE0E036E240E046E7F
:1018EC002CEC12F03901A5959585CC0E036E240EC7
:1018FC00046E27EC12F03901A5979587CA0E036E7A
:10190C00240E046E22EC12F03901A5999589E00E93
:10191C00036E240E046E45EC12F0DE0E036E240EE4
:10192C00046E3BEC12F0E20E036E240E046E54ECCB
:10193C0012F0D80E036E240E046E1DEC12F0DC0EA9
:10194C00036E240E046E36EC12F0D60E036E240ECB
:10195C00046E18EC12F0DA0E036E240E046E31ECE9
:10196C0012F03901A59B958BC80E036E240E046EE4
:10197C0013EC12F03901A59D958DD40E036E240E37
:10198C00046E4FEC12F03901A59F958FA59B958B9A
:10199C00000E8F6E6F0038FE05F0E00E0516D8A411
:1019AC00DAEF0CF0DCEF0CF0D0EF0CF01200020EC2
:1019BC000718D8A4E4EF0CF0E6EF0CF074EF0DF080
:1019CC0060002BF0D9FF60002FF0DAFF60000FF001
:1019DC00DFFF03C010F004C011F005C012F006C008
:1019EC0013F011C010F012C011F013C012F0136AF2
:1019FC0010C003F011C004F012C005F013C006F0C3
:101A0C00600023F0D9FF600027F0DAFF60000FF0D0
:101A1C00DFFF03C010F004C011F005C012F006C0C7
:101A2C0013F011C010F012C011F013C012F0136AB1
:101A3C0010C003F011C004F012C005F013C006F082
:101A4C000350030B146E03C010F004C011F005C05A
:101A5C0012F006C013F0030ED89010361136123661
:101A6C001336E82E32EF0DF010C003F011C004F065
:101A7C0012C005F013C006F00350E00B1424146ED2
:101A8C001450080F146E1450EB0B60003BF0D9FF90
:101A9C0060003FF0DAFFDF6E03C010F004C011F0FD
:101AAC0005C012F006C013F011C010F012C011F0F6
:101ABC0013C012F0136A10C003F011C004F012C06E
:101ACC0005F013C006F0600033F0D9FF600037F06A
:101ADC00DAFF60000FF0DFFFA8EF0DF0600023F0DD
:101AEC00D9FF600027F0DAFF000EDF6E60002BF0EC
:101AFC00D9FF60002FF0DAFF000EDF6E03C010F08C
:101B0C0004C011F005C012F006C013F0050ED890F9
:101B1C001036113612361336E82E8DEF0DF010C03C
:101B2C0003F011C004F012C005F013C006F0600001
:101B3C003BF0D9FF60003FF0DAFF60000FF0DFFFF1
:101B4C0052EF0DF01200EBEC11F0D28EC494C4964F
:101B5C00C49ACA8A000EBB6EC390C392000E1D6E4F
:101B6C00000E1C6E4AEC10F0BC84820E0001806FDB
:101B7C00DD0EE82EFED7802FFCD700D0BC94C48895
:101B8C006C0E166E000E176EB6EC09F00009D8B488
:101B9C00D2EF0DF0D4EF0DF066EF0EF038EF0EF043
:101BAC00020E1D6E000E1C6E4AEC10F066EF0EF06D
:101BBC0073C05BF0000E3B6E010E3A6E010E1D6E93
:101BCC00000E1C6E4AEC10F066EF0EF0000E3B6E31
:101BDC00000E3A6EE4EF0DF0010E1D6E800E1C6EC1
:101BEC0001EC10F066EF0EF0BC84100E0001816F5A
:101BFC00390E806F0D0EE82EFED7802FFCD7812F6B
:101C0C00FAD700D0BC94060E0001816F130E806FC2
:101C1C00AD0EE82EFED7802FFCD7812FFAD700D03F
:101C2C00000E1D6E000E1C6E4AEC10F066EF0EF0EE
:101C3C00BC84060E0001816F130E806FAD0EE82E72
:101C4C00FED7802FFCD7812FFAD700D0BC94000E82
:101C5C0093EC0FF0BC8466EF0EF0BC945DEC12F0CC
:101C6C0066EF0EF000017251806F816B8151000A9A
:101C7C00D8B443EF0EF066EF0EF08051000AD8B4E2
:101C8C00D6EF0DF0010AD8B4DEEF0DF0030AD8B48C
:101C9C00ECEF0DF0010AD8B4F2EF0DF0310AD8B424
:101CAC00FAEF0DF0010AD8B41EEF0EF0070AD8B403
:101CBC0033EF0EF0CB0AD8B4D6EF0DF066EF0EF082
:101CCC005DEC12F0C6EF0DF00DEF00F00B6E000E98
:101CDC00126E000E136E000E146E000E156E055073
:101CEC00030B106E0538E842070B116E0450076E9B
:101CFC00086AD89007360836D89007360836D89038
:101D0C000736083607C012F008C013F0000E13BED9
:101D1C00FF0E146E156E11501224126E000E13204D
:101D2C00136E000E1420146E000E1520156E12C0CA
:101D3C0007F013C008F014C009F015C00AF0020E29
:101D4C00D8900736083609360A36E82EA6EF0EF07C
:101D5C0007C012F008C013F009C014F00AC015F047
:101D6C0010501224126E000E1320136E000E14204D
:101D7C00146E000E1520156E12C008F013C009F079
:101D8C0014C00AF0076A07C012F008C013F009C0AB
:101D9C0014F00AC015F00B501224126E000E132012
:101DAC00136E000E1420146E000E1520156E12C04A
:101DBC0008F013C009F014C00AF0076A07C012F04B
:101DCC0008C013F009C014F00AC015F00350122417
:101DDC00126E000E1320136E000E1420146E000EE3
:101DEC001520156E12C00CF013C00DF014C00EF0BF
:101DFC0015C00FF00CC003F00DC004F00EC005F0C0
:101E0C000FC006F0120090AE0EEF0FF010EF0FF0B7
:101E1C001DEF0FF002D81CEF0FF00500FA6E4C50BE
:101E2C00FD6E4D50FE6EFF6AFA501200909E90AC03
:101E3C0022EF0FF024EF0FF031EF0FF002D830EF5C
:101E4C000FF00500FA6E4A50FD6E4B50FE6EFF6AA5
:101E5C00FA501200909C90AA36EF0FF038EF0FF06A
:101E6C0044EF0FF002D844EF0FF00500FA6E485023
:101E7C00FD6E4950FE6EFF6AFA50120090A849EFB1
:101E8C000FF04BEF0FF057EF0FF002D857EF0FF0AA
:101E9C000500FA6E4650FD6E4750FE6EFF6AFA5012
:101EAC00120090A65CEF0FF05EEF0FF06AEF0FF0F0
:101EBC0002D86AEF0FF00500FA6E4450FD6E4550E3
:101ECC00FE6EFF6AFA50120090A46FEF0FF071EFE4
:101EDC000FF07DEF0FF002D87DEF0FF00500FA6EDA
:101EEC004250FD6E4350FE6EFF6AFA50120090A2F3
:101EFC0082EF0FF084EF0FF090EF0FF002D890EF1D
:101F0C000FF00500FA6E4050FD6E4150FE6EFF6AF8
:101F1C00FA5012003901A59B1200046E3D0114BF4A
:101F2C009AEF0FF09CEF0FF000EF10F00450050D3E
:101F3C00010EF324F66E100EF420F76EF86A000E04
:101F4C00F82208006F00D7FF14FD0450050D010E98
:101F5C00F326000EF422010EF324F66E100EF4207C
:101F6C00F76EF86A000EF82208006F00D7FF15FD17
:101F7C000450050D020EF326000EF422010EF3247C
:101F8C00F66E100EF420F76EF86A000EF8220800B8
:101F9C00F5500309166F0450050D030EF326000EC1
:101FAC00F422010EF324F66E100EF420F76EF86A8C
:101FBC00000EF82208006F00D7FF19FD0450050D24
:101FCC00040EF326000EF422010EF324F66E100E0E
:101FDC00F420F76EF86A000EF82208006F00D4FFA8
:101FEC0003F0034603460346C4500318F70B0318CB
:101FFC00C46E148F1200000E226E000E236E000EA3
:10200C00246E000E256E000E93EC0FF0CA9A220E71
:10201C00036E000E046E000E066E040E056EFCECD4
:10202C0010F0CA8A5DEC12F0000E5A6E010E266E8C
:10203C001C501E6E1D501F6E206A216A030E1E243A
:10204C00276E000E1F20286E000E2020296E000E19
:10205C0021202A6E030E2B6E000E2C6E000E2D6EA0
:10206C00000E2E6E41EF10F0260E156E000E166E41
:10207C0006EC08F05A6E5A50D8B447EF10F049EFFE
:10208C0010F03AEF10F01200000E5A6E010E226E94
:10209C001C501E6E1D501F6E206A216A030E1E24DA
:1020AC00236E000E1F20246E000E2020256E000EC5
:1020BC002120266E010E276ECAA867EF10F069EF7B
:1020CC0010F06DEF10F0330E286E7FEF10F0CAB8E1
:1020DC0072EF10F074EF10F07FEF10F0320E286EEC
:1020EC007FEF10F0220E156E000E166E06EC08F047
:1020FC005A6E5A50D8B485EF10F087EF10F078EF85
:10210C0010F0000E5A6E1200096E0950076E086A24
:10211C00D89007360836D89007360836D890073648
:10212C00083607C00EF008C00FF0000E0FBEFF0EF1
:10213C00106E116E03C007F0050E086ED8900732B2
:10214C00082EA4EF10F007500E240E6E000E0F2078
:10215C000F6E000E1020106E000E1120116E0EC0AE
:10216C000AF00FC00BF010C00CF011C00DF00AC03B
:10217C0003F00BC004F00CC005F00DC006F012000B
:10218C00000EBA6E000EBB6E000EBC6EC268FB0E6B
:10219C00C36EDB0EC46EC494000E3A01606F000E69
:1021AC00506F000E406F000E816F000E516F000ECD
:1021BC00416F000E616F000E426F000E526F000EE9
:1021CC00626F436953696369446954696469080EB1
:1021DC00846F330E0A6F0B0EED6F050EE26F140E4B
:1021EC00E16F130EE06F1F0E156F120003C007F0A6
:1021FC0004C008F020EF11F0010E3D01126F6000D9
:10220C001FF0D9FF600023F0DAFFDF50116F3901A6
:10221C00A2A913EF11F015EF11F00DEF11F0600002
:10222C001FF0D9FF600023F0DAFF6F0043F4DFFFEB
:10223C00074A082A0506D8A00606052806E106283E
:10224C00D8A42BEF11F02DEF11F002EF11F01200CA
:10225C00000E3D01146F040E156F030E166F000E69
:10226C001C6F010E196FC4863901928D9289928B65
:10227C00C60E036E240E046E0EEC12F0B20E036E3C
:10228C00240E046E09EC12F0C40E036E240E046EC0
:10229C0004EC12F01200E40EF66E240EF76E000E33
:1022AC00F86E09006F00D4FF5CF000EE60F01A0EBF
:1022BC00EE6AE806FDE100EE34F0280EEE6AE80660
:1022CC00FDE1080ED56E000ED66E000ED76E000125
:1022DC00A9EF0DF0000E3901C06F000EC16F000E9A
:1022EC00C26F000EC36F000EC46F000EC56F000EE0
:1022FC00C66F000EC76F120002D88EEF11F00500EA
:10230C00FA6E3E50FD6E3F50FE6EFF6AFA501200A0
:10231C003901A59D120002D89DEF11F00500FA6E4F
:10232C004E50FD6E4F50FE6EFF6AFA50120039018E
:10233C00A599120002D8ACEF11F00500FA6E5050BE
:10234C00FD6E5150FE6EFF6AFA5012003901A597CE
:10235C00120002D8BBEF11F00500FA6E5250FD6E60
:10236C005350FE6EFF6AFA5012003901A595120007
:10237C0002D8CAEF11F00500FA6E5450FD6E55509C
:10238C00FE6EFF6AFA5012003901A593120002D8B2
:10239C00D9EF11F00500FA6E5650FD6E5750FE6ED7
:1023AC00FF6AFA5012003901A591120002D8E8EF29
:1023BC0011F00500FA6E3C50FD6E3D50FE6EFF6A4A
:1023CC00FA5012003901A59F120060EC12F070EC6B
:1023DC0011F0C6EC10F0F8EC11F02EEC11F007EC4B
:1023EC000CF01200600E3901D96F000EDB6F000E7D
:1023FC00DD6F050EDF6F000EDE6F120003C07AF08A
:10240C0004C07BF0120003C07CF004C07DF012000D
:10241C0003C07EF004C07FF0120003C03EF004C085
:10242C003FF0120003C042F004C043F0120003C09E
:10243C0046F004C047F0120003C04EF004C04FF049
:10244C00120003C050F004C051F0120003C052F04F
:10245C0004C053F0120003C040F004C041F012005D
:10246C0003C044F004C045F0120003C04AF004C09D
:10247C004BF0120003C054F004C055F0120003C01E
:10248C004CF004C04DF0120003C056F004C057F0DD
:10249C00120003C03CF004C03DF0120003C048F031
:1024AC0004C049F01200600073F111FD12003D01EF
:1024BC00149F1200D29A1200120012001200120085
:1024CC001200120012001200120012001200120070
:0924DC001200120012001200327D
:020000040020DA
:10000000FFFFFFFFFFFFFFFFFFFFFFFFFFFFFFFF00
:020000040030CA
:0A000000ECFFF7FF9FFFFFFFFFFF7B
:00000001FF
